:0B0384007D6E7FE07E2E12000380F5EE
:10035000EF1FAC0670011E4C600A7D027CEFDCFED4
:04036000DDFC80EC54
:010364002276
:100365003F065B4F666D7D077F6F777C395E7971E0
:03037500007FBF47
:10032B00C374089FFFF87401088002C333D8FCF430
:10033B00F590ED90036593F4F5807F017E00120339
:05034B00507580FF2247
:040003008E088F09CB
:10000700E4F512F513ED24B2700302020124FC702B
:100017000302011A24E6601524FE7003020201247C
:10002700FC700302011A242660030202D5AE08AF52
:10003700097C037DE81202D674652FF58274033EAE
:10004700F583E493F50AAE08AF097C037DE8120255
:10005700D6AA04AB057D647C00AF03AE021202D6BC
:1000670074652FF58274033EF583E493F50B7D6485
:100077007C00AF03AE021202D6AA04AB057D0A7C50
:1000870000AF03AE021202D674652FF58274033EE9
:10009700F583E493F50C7D0A7C00AF03AE021202F0
:1000A700D674652DF58274033CF583E493F50DE46E
:1000B700F512F513AF13740A2FF8E6643F70147442
:1000C7000A2FF8E4F60513E51370020512640345D9
:1000D7001270E1751200751301AF13C374089FFE08
:1000E700F87401088002C333D8FCF4F59074092F23
:1000F700F8E6F4F5807F017E001203507580FF0556
:1001070013E51370020512D39404E51264809480FA
:1001170040C722AE08AF097C037DE81202D674659A
:100127002FF58274033EF583E493F50EAE08AF090D
:100137007C037DE81202D6AA04AB057D647C00AF80
:1001470003AE021202D674652FF58274033EF5835F
:10015700E493F50F7D647C00AF03AE021202D6AACA
:1001670004AB057D0A7C00AF03AE021202D67465AC
:100177002FF58274033EF583E493F5107D0A7C0026
:10018700AF03AE021202D674652DF58274033CF5F7
:1001970083E493F511751200751304AF13740A2FD6
:1001A700F8E6643F7014740A2FF8E4F60513E513B4
:1001B700700205126407451270E175120075130489
:1001C700AF13C374089FFEF87401088002C333D8C5
:1001D700FCF4F59074092FF8E6F4F5807F017E00B2
:1001E7001203507580FF0513E51370020512D394AF
:0A01F70008E5126480948040C722DE
:1002010075140075150A751200751307AC14AD1538
:10021100AE08AF091202D674652DF58274033CF560
:1002210083E493FF740A2513F8A607AE08AF097C8F
:10023100007D0A1202D68E088F09E513151370028C
:100241001512E513B4FFC5E512B4FFC0E4F512F5CC
:1002510013AF13740A2FF8E6643F7014740A2FF871
:10026100E4F60513E513700205126404451270E10A
:10027100751200751304AF13740A2FF8E6643F700A
:1002810014740A2FF8E4F60513E5137002051264DD
:1002910007451270E1751200751301AF13C374089D
:1002A1009FFEF87401088002C333D8FCF4F5907402
:1002B100092FF8E6F4F5807F017E00120350758066
:1002C100FF0513E51370020512D39408E51264804B
:0402D100948040C70E
:0102D5002206
:0300000002037880
:0C037800787FE4F6D8FD7581150203843F
:1002D600BC000BBE0029EF8DF084FFADF022E4CC0C
:1002E600F875F008EF2FFFEE33FEEC33FCEE9DECD5
:1002F600984005FCEE9DFE0FD5F0E9E4CEFD22ED1B
:10030600F8F5F0EE8420D21CFEADF075F008EF2F64
:10031600FFED33FD4007985006D5F0F222C398FD55
:050326000FD5F0EA22F2
:00000001FF
