:10016900E4F508F50912028C750E03AB09AA087D9E
:10017900017F011201F40509E509700205087FE80C
:100189007E03120277750E05AB09AA087D017F016E
:050199001201F480E1F9
:1002A0003F065B4F666D7D077F6F777C395E7971A6
:0102B000004D
:10027700EF1FAC0670011E4C600A7D027CEFDCFEAE
:04028700DDFC80EC2E
:01028B002250
:1001CF00C374089FFFF87401088002C333D8FCF48E
:1001DF00F590ED9002A093F4F5807F017E0012025E
:0501EF00777580FF227E
:0602B100C2918F80D29281
:0802B7007F027EEFDEFEDFFC9A
:0102BF00221C
:0A02CC00C2901202B1C2920202B702
:10023B00CFCDCFCECCCE1200427C007D0A12004235
:04024B00ED2430FF6F
:0A024F00D2901202B1C2920202B76F
:10025900AE07EEFB7A0064017004ED148009EB64CB
:0E026900024A7009ED243F4480FF1202CC22AD
:10028C007F381202CC7F0C1202CC7F061202CC7F7C
:04029C00010202CC8D
:0A02D600AC03120259AF0402024FFC
:060218008B248A258926D3
:10021E00120259E4FDAB24AA25A9268D827583000E
:0C022E00120003FF600612024F0D80E971
:01023A0022A1
:0A019E00EF24FFFDEE34FFFC7F0AA2
:0801A8008E0F8F108C118D12D7
:1001B0007F017E00E4FBEBC39512E5116480F874C7
:0E01C0008098500AAC0FAD101200300B80E892
:0101CE00220E
:0401F4008A0C8B0DD9
:1001F800120259AA0EEAFF7E00D3940074809480FC
:0F020800400D12019EAC0CAD0D12023B1A80E6A8
:0102170022C4
:0400E2008B828A8300
:1000E600120259C3E58364809480400D7F2B12026F
:1000F6004F85831885821980107F2D12024FC3E425
:100106009582F519E49583F518AA17EAFF7E00D3C0
:10011600940074809480400D12019EAC18AD1912A3
:05012600023B1A80E617
:01012B0022B1
:040097008A1C8B1D17
:10009B00120259AA1EEAD39400748094804037EA66
:1000AB0024FFFDE434FFFC7F107E001201A8AC1C82
:1000BB00AD1DCFCDCFCECCCE120042EF540FFEC331
:1000CB00940A74809480EE5004243080022437FF0D
:0600DB0012024F1A80BF63
:0100E10022FC
:04012C008A218B2277
:10013000120259AA23EAFF7E00D3940074809480AF
:100140004026EF24FFFDEE34FFFC7F021201A8AC35
:1001500021AD22CFCDCFCECCCE120042EF54012420
:0801600030FF12024F1A80CD9E
:010168002274
:030000000202C039
:0C02C000787FE4F6D8FD75812602016904
:10000300BB010CE58229F582E5833AF583E02250B2
:1000130006E92582F8E622BBFE06E92582F8E222FC
:0D002300E58229F582E5833AF583E4932216
:10003000EF8DF0A4A8F0CF8CF0A428CE8DF0A42EE4
:02004000FE229E
:10004200BC000BBE0029EF8DF084FFADF022E4CCA2
:10005200F875F008EF2FFFEE33FEEC33FCEE9DEC6B
:10006200984005FCEE9DFE0FD5F0E9E4CEFD22EDB1
:10007200F8F5F0EE8420D21CFEADF075F008EF2FFB
:10008200FFED33FD4007985006D5F0F222C398FDEC
:050092000FD5F0EA2289
:00000001FF
