:100A8900543A0054483A00544C3A004F563A4800F8
:0A0A99004F563A4C002020202000A8
:040B65000208000082
:10046D00120B1F7F011208DF8F0AE4FF1208DF8FC6
:10047D000FEF3395E0FED3EF947DEE6480948050C2
:10048D001FAF0AEF3395E0FEC3EF94C9EE6480947D
:10049D007F400DD3E50A6480F8E50F64809850061F
:1004AD00750F14750A0F120ABA120AFC7BFF7A0A2D
:1004BD0079897D017F011209AB7BFF7A0A798C7DE9
:1004CD00017F021209AB7BFF7A0A79907D097F02C9
:1004DD001209ABE50FFB3395E0FA7519037D047F27
:1004ED00021207B5E50AFB3395E0FA7519037D0C89
:1004FD007F021207B5120B5F8F10120B1F12090F1F
:10050D008F0E8E0D8D0C8C0BE4FFFEFDFCAB0EAA39
:10051D000DA90CA80B1201B4501E7B2D7D037F017C
:10052D00120B42AF0EAE0DAD0CAC0B12022D8F1493
:10053D008E138D128C1180157B2B7D037F01120B79
:10054D0042850E14850D13850C12850B11AF14AE5B
:10055D0013AD12AC1112027CAB07AA067519037DFF
:10056D00047F011209877B2E7D077F01120B42E468
:10057D00FFFE7DC87C42AB14AA13A912A81112006C
:10058D000E12027CE47B64FAF9F81203CD751902A0
:10059D007D087F01120987E5107003020636FF7E84
:1005AD000064017017050FAD0FED3395E0FCD3ED31
:1005BD00947DEC648094804003750F7DEF64024E52
:1005CD007011150FD3E50A6480F8E50F648098501B
:1005DD0002050FE51064037011050AC3E50F648071
:1005ED00F8E50A6480984002150AE510640470026B
:1005FD00150AE50FFB3395E0FA7519037D047F02AB
:10060D001207B5E50AFB3395E0FA7519037D0C7FEA
:10061D00021207B5AD0FE4FF1209F07F057E00123F
:10062D000AE7AD0A7F011209F0AC0FEC120248ABDC
:10063D000EAA0DA90CA80B1201B4600A40087BFF8D
:10064D007A0A79948019AC0AEC120248AB0EAA0D05
:10065D00A90CA80B1201B450107BFF7A0A79997D71
:10066D000D7F011209AB0205027BFF7A0A799E7D8F
:09067D000D7F011209AB02050218
:03000B00020712D7
:10071200C0E0C0F0C083C082C0D075D000C000C0AD
:0D07220001C002C003C004C005C006C0072E
:10072F00758A18758CFC0509E50970020508C394D4
:10073F0014E508940040097508007509001207FFB9
:10074F00D007D006D005D004D003D002D001D000FE
:0B075F00D0D0D082D083D0F0D0E032A8
:100AE700EF1FAC0670011E4C600A7D027CEFDCFE36
:040AF700DDFC80ECB6
:010AFB0022D8
:0D0B1F00120A4E7FCC1209CE7F440209CE8F
:10090F00120A4E7FCC1209CE7FBE1209CE12096198
:10091F008F15120961EFFEE515FFFDAC06EC120213
:0B092F0043E4FBFA79807841020117D5
:060B1000C2918F80D29219
:080B16007F027EEFDEFEDFFC32
:010B1E0022B4
:0A0B3800C290120B10C292020B16BD
:100A1200CFCDCFCECCCE12033C7C007D0A12033C5C
:040A2200ED2430FF90
:0A0A2600D290120B10C292020B16C0
:100A3000AE07EEFB7A0064017004ED148009EB64EC
:0E0A4000024A7009ED243F4480FF120B382259
:100AFC007F38120B387F0C120B387F06120B387FA5
:040B0C0001020B389F
:0A0B4200AC03120A30AF04020A26C9
:0609AB008B158A16891766
:1009B100120A30E4FDAB15AA16A9178D82758300C2
:0C09C1001202FDFF6006120A260D80E9FC
:0109CD002207
:0A08AE00EF24FFFDEE34FFFC7F0A8B
:0808B8008E1C8F1D8C1E8D1F8C
:1008C0007F017E00E4FBEBC3951FE51E6480F87496
:0E08D0008098500AAC1CAD1D12032A0B80E864
:0108DE0022F7
:040987008A178B1828
:10098B00120A30AA19EAFF7E00D394007480948077
:0F099B00400D1208AEAC17AD18120A121A80E602
:0109AA00222A
:0407B5008B828A8326
:1007B900120A30C3E58364809480400D7F2B120AAE
:1007C9002685831A85821B80107F2D120A26C3E491
:1007D9009582F51BE49583F51AAA19EAFF7E00D3E1
:1007E900940074809480400D1208AEAC1AAD1B12AF
:0507F9000A121A80E65F
:0107FE0022D8
:04076A008A228B2331
:10076E00120A30AA24EAD39400748094804037EAA7
:10077E0024FFFDE434FFFC7F107E001208B8AC228B
:10078E00AD23CFCDCFCECCCE12033CEF540FFEC354
:10079E00940A74809480EE5004243080022437FF33
:0607AE00120A261A80BFAA
:0107B4002222
:04083F008A278B2851
:10084300120A30AA29EAFF7E00D3940074809480B0
:100853004026EF24FFFDEE34FFFC7F021208B8AC04
:1008630027AD28CFCDCFCECCCE12033CEF540124FD
:0808730030FF120A261A80CDA5
:01087B00225A
:100A4E00C2AFD2B7C2B77FF7DFFED2B77F20DFFECD
:0D0A5E00A2B7E433FE7FF7DFFED2AFAF0694
:010A6B002268
:100AA300E4C2B7C2AF7E04DEFEEF24FF92B77E1826
:060AB300DEFED2B7D2AF57
:010AB900221A
:100A6C00E4C2AFC2B77F02DFFED2B77F02DFFEA2C5
:0C0A7C00B7E433FE7F16DFFED2AFAF06FA
:010A8800224B
:0209CE00AD0773
:1009D000E4FCECC39408748094805013A804740160
:0F09E000088002C333D8FC5DFF120AA30C80E32A
:0109EF0022E5
:10096100E4FDFCECC39408748094805016120A6C68
:10097100EF600DA8047401088002C333D8FC42055E
:050981000C80E0AF0551
:01098600224E
:1009F0008F158D16120B567FA012087C120B2CAF90
:100A00001512087C120B2CAF1612087C120B2C024C
:020A10000003E1
:0208DF008F1573
:1008E100120B567FA012087C120B2CAF1512087C3C
:1008F100120B2C120B567FA112087C120B2C120921
:0D0901003A8F167F01120B4C120003AF1647
:01090E0022C6
:090B5600D2B3D2B2C2B3C2B22282
:07000300C2B3D2B2D2B32256
:02087C00AD07C6
:10087E00E4FBEBC394087480948050237E00748054
:10088E00A803088006CEA2E713CE13D8F8FFEDF525
:0F089E0082EF558224FF92B3D2B2C2B20B80D345
:0108AD002228
:10093A00E4FFD2B3FEEEC39408748094805017D2B9
:10094A00B230B30DA8067480088002C313D8FC42E3
:06095A0007C2B20E80DFAF
:010960002274
:0A0B4C00EF24FF92B3D2B2C2B2222E
:0B0B2C00D2B3D2B2A2B3E433FFC2B2D6
:010B3700229B
:050B5F00AF2CE4F52CB1
:010B6400226E
:100AD100E4FF20A3010F20A2027F0220A1027F03D5
:050AE10020A0027F04CB
:010AE60022ED
:1007FF00852A2B120AD18F2AAF2B7E00EF6401704E
:10080F0007E52A7003752C01EF64024E7007E52A85
:10081F007003752C02E52B64037007E52A700375CE
:0F082F002C03E52B64047007E52A7003752C0475
:01083E002297
:100ABA005389F0438901758A18758CFCC28DD28CD2
:070ACA00D2A9D2AFC2B9228C
:10000E00EC4D6011E8497017ED33EC3304600DE4EC
:10001E00FCFFFEFD22E933E8330470F80202E81219
:10002E0002B358046009E4CC24815006285009021A
:10003E0002F22840030202EFC0E0EB4A7044B9809E
:10004E0006D0E0FB0202DEEF4E701CBD8008EBFF17
:10005E00EAFEE9FD80EBE98DF0A4FEE5F00200F783
:10006E00E9CDF9EAFEEBFFEF89F0A4FCE5F0CE89CD
:10007E00F0A42EFFE435F0CD89F0A42DFEE435F08A
:10008E008067EF4E7005BD80D780C3EF8BF0A4ACB8
:10009E00F0EE8BF0A42CFCE435F0F8EF8AF0A42CF3
:1000AE00E5F038FCE433CB8DF0A42CFCE5F03BF806
:1000BE00EE8AF0A42CFCE5F038F8E433CF89F0A4F6
:1000CE002CFCE5F038CF3400CE89F0A42FFFE5F0FC
:1000DE003EFEE433C98DF0A42EFEE5F039CD8AF054
:1000EE00A42FFFE5F03EFEE43DFD33D0E0FB5007CC
:1000FE000BBB000F0202F2EC2CFCEF33FFEE33FED3
:06010E00ED33FD0202CA00
:100114000202F2EC5D046005E8590470030202E88F
:100124001202B3580460F6EC4860F2EC7004FDFE71
:10013400FF22C860DB2481C85009C39860025006BE
:100144000202EF9850CAF582E9294B4A7005AB8246
:100154000202DE75F0007C1A7880C3EF9BEE9AED04
:1001640099400DC3EF9BFFEE9AFEED99FDE842F036
:10017400DC23ACF0D0E0FFD0E0FED0E0FDAB822089
:10018400E7101BEB60BAEC2CFCEF33FFEE33FEED13
:1001940033FD0202CAE803F830E705C0F075F00049
:1001A400EF2FFFEE33FEED33FD40B830E7C280AAF7
:1001B40074F8CC6480CCC86480C8F58204604FC3F2
:1001C400EB9FF5F0EA9E42F0E99D42F0E89C45F091
:1001D400603C501DE5825FFFE582D313CB5BCBF41B
:1001E4002B5582FB50280ABA002409B90020088044
:1001F4001DE5825BFBE582D313CF5FCFF4C3132FDE
:100204005582FF50090EBE00050DBD00010CC3EB65
:100214009FF5F0EA9E42F0E99D42F0E89C45F060CB
:0902240007CC4820E701B3EC22ED
:10022D00ED33EC33600A047003BD8004ECB2E7FCDF
:01023D00229E
:10023E0075F020800E75F010800575F0087D007E3B
:10024E00007F003392D530D50312045FEC3340109B
:10025E00EF33FFEE33FEED33FDEC33FCD5F0ED2244
:0E026E00E5F0247EA2D513CC92E7CDCEFF2280
:10027C00EDD2E7CD33EC3392D524814006E4FFFE7A
:10028C00FDFC22FCE4CFCECDCC24E0501174FF80D9
:10029C00EDC3CC13CCCD13CDCE13CECF13CF047076
:0702AC00F030D5DE02045F13
:1002B300E9D2E7C933E833F892D5EDD2E7CD33EC91
:0702C30033FC5002B2D5220A
:1002CA00EC30E7100FBF000C0EBE00080DBD000495
:1002DA000BEB6014A2D5EB13FCED92E7FD2274FF41
:1002EA00FCFDFEFF22E480F8A2D574FF13FC7D809A
:0302FA00E480EFAE
:030000000206866F
:0C068600787FE4F6D8FD75812C0206CDCB
:1002FD00BB010CE58229F582E5833AF583E02250B6
:10030D0006E92582F8E622BBFE06E92582F8E222FF
:0D031D00E58229F582E5833AF583E4932219
:10032A00EF8DF0A4A8F0CF8CF0A428CE8DF0A42EE7
:02033A00FE22A1
:10033C00BC000BBE0029EF8DF084FFADF022E4CCA5
:10034C00F875F008EF2FFFEE33FEEC33FCEE9DEC6E
:10035C00984005FCEE9DFE0FD5F0E9E4CEFD22EDB4
:10036C00F8F5F0EE8420D21CFEADF075F008EF2FFE
:10037C00FFED33FD4007985006D5F0F222C398FDEF
:05038C000FD5F0EA228C
:1003910075F008758200EF2FFFEE33FECD33CDCC23
:1003A10033CCC58233C5829BED9AEC99E5829840A6
:1003B1000CF582EE9BFEED9AFDEC99FC0FD5F0D683
:1003C100E4CEFBE4CDFAE4CCF9A88222B800C1B9AD
:1003D1000059BA002DEC8BF084CFCECDFCE5F0CBEB
:1003E100F97818EF2FFFEE33FEED33FDEC33FCEB24
:1003F10033FB10D703994004EB99FB0FD8E5E4F9DF
:10040100FA227818EF2FFFEE33FEED33FDEC33FCCB
:10041100C933C910D7059BE99A4007EC9BFCE99ABF
:10042100F90FD8E0E4C9FAE4CCFB2275F010EF2F04
:10043100FFEE33FEED33FDCC33CCC833C810D70704
:100441009BEC9AE899400AED9BFDEC9AFCE899F83F
:0E0451000FD5F0DAE4CDFBE4CCFAE4C8F922D2
:0E045F00C3E49FFFE49EFEE49DFDE49CFC22AE
:1006920002046DE493A3F8E493A34003F68001F20D
:1006A20008DFF48029E493A3F85407240CC8C33369
:1006B200C4540F4420C8834004F456800146F6DF38
:1006C200E4800B0102040810204080900B65E47E58
:1006D200019360BCA3FF543F30E509541FFEE4932D
:1006E200A360010ECF54C025E060A840B8E493A3F4
:1006F200FAE493A3F8E493A3C8C582C8CAC583CA1F
:10070200F0A3C8C582C8CAC583CADFE9DEE780BED6
:010B6900008B
:00000001FF
