:0D077E0054656D70657261747572653A00A6
:100462001207487BFF7A07797E7D017F0112067FA2
:1004720012078B12060A8F258E248D238C22E4FF0D
:10048200FEFDFCAB25AA24A923A8221201A9501E15
:100492007B2D7D017F021207AEAF25AE24AD23ACCA
:1004A200221202228F258E248D238C2280097B2BFF
:1004B2007D017F021207AEAF25AE24AD23AC22121E
:1004C2000271AB07AA06750C037D027F0212065B5E
:1004D2007B2E7D057F021207AEE4FFFE7D7A7C440F
:1004E200AB25AA24A923A822120003120271E47BDD
:1004F200107A27F9F81203C2750C047D067F0212E6
:05050200065B0204721B
:06076F00C2918F80D292BE
:080775007F027EEFDEFEDFFCD7
:01077D002259
:0A07A400C29012076FC2920207759F
:1006C400CFCDCFCECCCE1203317C007D0A120331C4
:0406D400ED2430FFE2
:0A06D800D29012076FC2920207755C
:1006E200AE07EEFB7A0064017004ED148009EB643E
:0E06F200024A7009ED243F4480FF1207A42243
:100748007F381207A47F0C1207A47F061207A47F24
:04075800010207A4EF
:0A07AE00AC031206E2AF040206D805
:06067F008B088A09890ABC
:100685001206E2E4FDAB08AA09A90A8D827583006A
:0C0695001202F2FF60061206D80D80E988
:0106A1002236
:0A05D900EF24FFFDEE34FFFC7F0A63
:0805E3008E0D8F0E8C0F8D10A0
:1005EB007F017E00E4FBEBC39510E50F6480F8748C
:0E05FB008098500AAC0DAD0E12031F0B80E865
:0106090022CE
:04065B008A0A8B0B71
:10065F001206E2AA0CEAFF7E00D394007480948005
:0F066F00400D1205D9AC0AAD0B1206C41A80E675
:01067E002259
:040552008B828A838B
:100556001206E2C3E58364809480400D7F2B120669
:10056600D885831685821780107F2D1206D8C3E49E
:100576009582F517E49583F516AA15EAFF7E00D352
:10058600940074809480400D1205D9AC16AD1712F4
:0505960006C41A80E616
:01059B00223D
:040507008A1A8B1BA6
:10050B001206E2AA1CEAD39400748094804037EA66
:10051B0024FFFDE434FFFC7F107E001205E3AC1AD0
:10052B00AD1BCFCDCFCECCCE120331EF540FFEC3CC
:10053B00940A74809480EE5004243080022437FF98
:06054B001206D81A80BF61
:010551002287
:04059C008A1F8B2007
:1005A0001206E2AA21EAFF7E00D3940074809480B0
:1005B0004026EF24FFFDEE34FFFC7F021205E3AC82
:1005C0001FAD20CFCDCFCECCCE120331EF540124BE
:0805D00030FF1206D81A80CD9D
:0105D8002200
:10073300EF1FAC0670011E4C600A7D027CEFDCFEED
:04074300DDFC80EC6D
:01074700228F
:0D078B001207007FCC1206A27F440206A2D6
:10060A001207007FCC1206A27FBE1206A21206357E
:10061A008F08120635EFFEE508FFFDAC06EC120264
:0B062A0038E4FBFA7980784102010CF3
:10070000D2B7C2B77FF7DFFED2B77F20DFFEA2B736
:09071000E433FE7FF7DFFEAF06C3
:0107190022BD
:10075C00E4C2B77E04DEFEEF24FF92B77E18DEFE05
:02076C00D2B702
:01076E002268
:10071A00E4C2B77F02DFFED2B77F02DFFEA2B7E4F0
:08072A0033FE7F16DFFEAF066F
:0107320022A4
:0206A200AD07A2
:1006A400E4FCECC39408748094805013A80474018F
:0F06B400088002C333D8FC5DFF12075C0C80E3A3
:0106C3002214
:10063500E4FDFCECC3940874809480501612071AEC
:10064500EF600DA8047401088002C333D8FC42058D
:050655000C80E0AF0580
:01065A00227D
:10000300EC4D6011E8497017ED33EC3304600DE4F7
:10001300FCFFFEFD22E933E8330470F80202DD122F
:1000230002A858046009E4CC248150062850090230
:1000330002E72840030202E4C0E0EB4A7044B980BF
:1000430006D0E0FB0202D3EF4E701CBD8008EBFF2D
:10005300EAFEE9FD80EBE98DF0A4FEE5F00200EC99
:10006300E9CDF9EAFEEBFFEF89F0A4FCE5F0CE89D8
:10007300F0A42EFFE435F0CD89F0A42DFEE435F095
:100083008067EF4E7005BD80D780C3EF8BF0A4ACC3
:10009300F0EE8BF0A42CFCE435F0F8EF8AF0A42CFE
:1000A300E5F038FCE433CB8DF0A42CFCE5F03BF811
:1000B300EE8AF0A42CFCE5F038F8E433CF89F0A401
:1000C3002CFCE5F038CF3400CE89F0A42FFFE5F007
:1000D3003EFEE433C98DF0A42EFEE5F039CD8AF05F
:1000E300A42FFFE5F03EFEE43DFD33D0E0FB5007D7
:1000F3000BBB000F0202E7EC2CFCEF33FFEE33FEE9
:06010300ED33FD0202BF16
:100109000202E7EC5D046005E8590470030202DDB0
:100119001202A8580460F6EC4860F2EC7004FDFE87
:10012900FF22C860DB2481C85009C39860025006C9
:100139000202E49850CAF582E9294B4A7005AB825C
:100149000202D375F0007C1A7880C3EF9BEE9AED1A
:1001590099400DC3EF9BFFEE9AFEED99FDE842F041
:10016900DC23ACF0D0E0FFD0E0FED0E0FDAB822094
:10017900E7101BEB60BAEC2CFCEF33FFEE33FEED1E
:1001890033FD0202BFE803F830E705C0F075F0005F
:10019900EF2FFFEE33FEED33FD40B830E7C280AA02
:1001A90074F8CC6480CCC86480C8F58204604FC3FD
:1001B900EB9FF5F0EA9E42F0E99D42F0E89C45F09C
:1001C900603C501DE5825FFFE582D313CB5BCBF426
:1001D9002B5582FB50280ABA002409B9002008804F
:1001E9001DE5825BFBE582D313CF5FCFF4C3132FE9
:1001F9005582FF50090EBE00050DBD00010CC3EB71
:100209009FF5F0EA9E42F0E99D42F0E89C45F060D6
:0902190007CC4820E701B3EC22F8
:10022200ED33EC33600A047003BD8004ECB2E7FCEA
:0102320022A9
:1002330075F020800E75F010800575F0087D007E46
:10024300007F003392D530D503120454EC334010B1
:10025300EF33FFEE33FEED33FDEC33FCD5F0ED224F
:0E026300E5F0247EA2D513CC92E7CDCEFF228B
:10027100EDD2E7CD33EC3392D524814006E4FFFE85
:10028100FDFC22FCE4CFCECDCC24E0501174FF80E4
:10029100EDC3CC13CCCD13CDCE13CECF13CF047081
:0702A100F030D5DE02045429
:1002A800E9D2E7C933E833F892D5EDD2E7CD33EC9C
:0702B80033FC5002B2D52215
:1002BF00EC30E7100FBF000C0EBE00080DBD0004A0
:1002CF000BEB6014A2D5EB13FCED92E7FD2274FF4C
:1002DF00FCFDFEFF22E480F8A2D574FF13FC7D80A5
:0302EF00E480EFB9
:030000000207985C
:0C079800787FE4F6D8FD7581250204622C
:1002F200BB010CE58229F582E5833AF583E02250C1
:1003020006E92582F8E622BBFE06E92582F8E2220A
:0D031200E58229F582E5833AF583E4932224
:10031F00EF8DF0A4A8F0CF8CF0A428CE8DF0A42EF2
:02032F00FE22AC
:10033100BC000BBE0029EF8DF084FFADF022E4CCB0
:10034100F875F008EF2FFFEE33FEEC33FCEE9DEC79
:10035100984005FCEE9DFE0FD5F0E9E4CEFD22EDBF
:10036100F8F5F0EE8420D21CFEADF075F008EF2F09
:10037100FFED33FD4007985006D5F0F222C398FDFA
:050381000FD5F0EA2297
:1003860075F008758200EF2FFFEE33FECD33CDCC2E
:1003960033CCC58233C5829BED9AEC99E5829840B1
:1003A6000CF582EE9BFEED9AFDEC99FC0FD5F0D68E
:1003B600E4CEFBE4CDFAE4CCF9A88222B800C1B9B8
:1003C6000059BA002DEC8BF084CFCECDFCE5F0CBF6
:1003D600F97818EF2FFFEE33FEED33FDEC33FCEB2F
:1003E60033FB10D703994004EB99FB0FD8E5E4F9EA
:1003F600FA227818EF2FFFEE33FEED33FDEC33FCD7
:10040600C933C910D7059BE99A4007EC9BFCE99ACA
:10041600F90FD8E0E4C9FAE4CCFB2275F010EF2F0F
:10042600FFEE33FEED33FDCC33CCC833C810D7070F
:100436009BEC9AE899400AED9BFDEC9AFCE899F84A
:0E0446000FD5F0DAE4CDFBE4CCFAE4C8F922DD
:0E045400C3E49FFFE49EFEE49DFDE49CFC22B9
:00000001FF
