:05048D001203E680FEF1
:030023000202A72F
:1002A700C0E0C0F0C083C082C0D075D000C000C01D
:1002B70001C002C003C004C005C006C00730980CC7
:1002C700E599F4F580AF99120485C298D007D00656
:1002D700D005D004D003D002D001D000D0D0D08236
:0702E700D083D0F0D0E0321B
:100445003F065B4F666D7D077F6F777C395E7971FF
:0104550000A6
:040401007F0F7E00EB
:10040500EF1FAC0670011E4C600A7D027CEFDCFE1E
:04041500DDFC80EC9E
:0104190022C0
:10035C00C374089FFFF87401088002C333D8FCF4FF
:10036C00F590ED90044593F4F5807F017E00120426
:05037C00057580FF2261
:06045600C2918F80D292DA
:08045C007F027EEFDEFEDFFCF3
:010464002275
:0A047100C290120456C29202045C0D
:10000300CFCDCFCECCCE1201617C007D0A1201612F
:04001300ED2430FFA9
:0A001700D290120456C29202045C5B
:1003C800AE07EEFB7A0064017004ED148009EB645B
:0E03D800024A7009ED243F4480FF1204712296
:100431007F381204717F0C1204717F061204717FE0
:04044100010204713F
:0A047B00AC031203C8AF040200171F
:0603A5008B228A2389244B
:1003AB001203C8E4FDAB22AA23A9248D8275830016
:0C03BB00120122FF60061200170D80E9FD
:0103C7002213
:0A032B00EF24FFFDEE34FFFC7F0A13
:080335008E1E8F1F8C208D210C
:10033D007F017E00E4FBEBC39521E5206480F8741A
:0E034D008098500AAC1EAD1F12014F0B80E8C5
:01035B00227F
:040381008A118B1240
:100385001203C8AA13EAFF7E00D3940074809480F8
:0F039500400D12032BAC11AD121200031A80E6BB
:0103A4002236
:04025D008B828A8383
:100261001203C8C3E58364809480400D7F2B120084
:100271001785830D85820E80107F2D120017C3E430
:100281009582F50EE49583F50DAA0CEAFF7E00D365
:10029100940074809480400D12032BAC0DAD0E12AE
:0502A10000031A80E6D5
:0102A6002235
:040212008A168B17A6
:100216001203C8AA18EAD39400748094804037EA7F
:1002260024FFFDE434FFFC7F107E00120335AC167C
:10023600AD17CFCDCFCECCCE120161EF540FFEC39A
:10024600940A74809480EE5004243080022437FF90
:060256001200171A80BF20
:01025C00227F
:0402EE008A1B8B1CC0
:1002F2001203C8AA1DEAFF7E00D394007480948082
:100302004026EF24FFFDEE34FFFC7F02120335ACE2
:100312001BAD1CCFCDCFCECCCE120161EF54012448
:0803220030FF1200171A80CD14
:01032A0022B0
:10002600E4FB75A0FFC2A320A70E7F0FFE120405F6
:1000360030A7FD1204017B0120A60B12040130A695
:10004600FD1204017B0520A50B12040130A5FD124B
:1000560004017B0920A40B12040130A4FD12040143
:100066007B0D75A0FFC2A220A70B12040130A7FDCD
:100076001204017B0220A60B12040130A6FD120415
:10008600017B0620A50B12040130A5FD1204017B9D
:100096000A20A40B12040130A4FD1204017B0E7584
:1000A600A0FFC2A120A70B12040130A7FD12040174
:1000B6007B0320A60B12040130A6FD1204017B0768
:1000C60020A50B12040130A5FD1204017B0B20A410
:1000D6000B12040130A4FD1204017B0F75A0FFC2B0
:1000E600A020A70B12040130A7FD1204017B0420F7
:1000F600A60B12040130A6FD1204017B0820A50BF5
:1001060012040130A5FD1204017B0C20A40B12047D
:0B0116000130A4FD1204017B10AF03B8
:0101210022BB
:1001B600E4FB20A3127F14FE12040530A3FD7F1476
:1001C6007E001204057B0120A2137F147E00120418
:1001D6000530A2FD7F147E001204057B0220A113C8
:1001E6007F147E0012040530A1FD7F147E001204E8
:1001F600057B0320A0137F147E0012040530A0FDAA
:0B0206007F147E001204057B04AF0390
:0102110022CA
:10041A005389F0438901758A18758CFCC28DD28C78
:07042A00D2A9D2AFC2B92232
:1003E60043878075985053890F438920758BF37521
:0B03F6008DF3C2ABD28ED2AFD2AC228E
:080485008F993099FDC2992204
:0300000002046592
:0C046500787FE4F6D8FD75812402048D38
:10012200BB010CE58229F582E5833AF583E0225092
:1001320006E92582F8E622BBFE06E92582F8E222DC
:0D014200E58229F582E5833AF583E49322F6
:10014F00EF8DF0A4A8F0CF8CF0A428CE8DF0A42EC4
:02015F00FE227E
:10016100BC000BBE0029EF8DF084FFADF022E4CC82
:10017100F875F008EF2FFFEE33FEEC33FCEE9DEC4B
:10018100984005FCEE9DFE0FD5F0E9E4CEFD22ED91
:10019100F8F5F0EE8420D21CFEADF075F008EF2FDB
:1001A100FFED33FD4007985006D5F0F222C398FDCC
:0501B1000FD5F0EA2269
:00000001FF
