:0304D500012500FE
:10043F0012046E7F111204CDAF2505251204CD7F56
:08044F00E87E0312042A80F08C
:100499003F065B4F666D7D077F6F777C395E7971AB
:0104A9000052
:040426007F0F7E00C6
:10042A00EF1FAC0670011E4C600A7D027CEFDCFEF9
:04043A00DDFC80EC79
:01043E00229B
:10037E00C374089FFFF87401088002C333D8FCF4DD
:10038E00F590ED90049993F4F5807F017E001204B0
:05039E002A7580FF221A
:0604AA00C2918F80D29286
:0804B0007F027EEFDEFEDFFC9F
:0104B8002221
:0A04B900C2901204AAC2920204B01D
:1003EA00CFCDCFCECCCE12013E7C007D0A12013E8B
:0403FA00ED2430FFBF
:0A03FE00D2901204AAC2920204B0C9
:10040800AE07EEFB7A0064017004ED148009EB641A
:0E041800024A7009ED243F4480FF1204B9220D
:100485007F381204B97F0C1204B97F061204B97FB4
:04049500010204B9A3
:0A04C300AC03120408AF040203FEAC
:0603C7008B228A23892429
:1003CD00120408E4FDAB22AA23A9248D82758300B3
:0C03DD001200FFFF60061203FE0D80E915
:0103E90022F1
:0A034D00EF24FFFDEE34FFFC7F0AF1
:080357008E1E8F1F8C208D21EA
:10035F007F017E00E4FBEBC39521E5206480F874F8
:0E036F008098500AAC1EAD1F12012C0B80E8C6
:01037D00225D
:0403A3008A118B121E
:1003A700120408AA13EAFF7E00D394007480948095
:0F03B700400D12034DAC11AD121203EA1A80E68D
:0103C6002214
:0402C6008B828A831A
:1002CA00120408C3E58364809480400D7F2B1203D7
:1002DA00FE85830D85820E80107F2D1203FEC3E4F6
:1002EA009582F50EE49583F50DAA0CEAFF7E00D3FC
:1002FA00940074809480400D12034DAC0DAD0E1223
:05030A0003EA1A80E681
:01030F0022CB
:04027B008A168B173D
:10027F00120408AA18EAD39400748094804037EAD5
:10028F0024FFFDE434FFFC7F107E00120357AC16F1
:10029F00AD17CFCDCFCECCCE12013EEF540FFEC354
:1002AF00940A74809480EE5004243080022437FF27
:0602BF001203FE1A80BFCD
:0102C5002216
:040310008A1B8B1C9D
:10031400120408AA1DEAFF7E00D39400748094801E
:100324004026EF24FFFDEE34FFFC7F02120357AC9E
:100334001BAD1CCFCDCFCECCCE12013EEF54012449
:0803440030FF1203FE1A80CD08
:01034C00228E
:10000300E4FB75A0FFC2A320A70E7F0FFE12042AF4
:1000130030A7FD1204267B0120A60B12042630A66E
:10002300FD1204267B0520A50B12042630A5FD1224
:1000330004267B0920A40B12042630A4FD120426F7
:100043007B0D75A0FFC2A220A70B12042630A7FDCB
:100053001204267B0220A60B12042630A6FD1204EE
:10006300267B0620A50B12042630A5FD1204267B51
:100073000A20A40B12042630A4FD1204267B0E755D
:10008300A0FFC2A120A70B12042630A7FD1204264D
:100093007B0320A60B12042630A6FD1204267B0741
:1000A30020A50B12042630A5FD1204267B0B20A4E9
:1000B3000B12042630A4FD1204267B0F75A0FFC289
:1000C300A020A70B12042630A7FD1204267B0420D0
:1000D300A60B12042630A6FD1204267B0820A50BCE
:1000E30012042630A5FD1204267B0C20A40B120457
:0B00F3002630A4FD1204267B10AF0392
:0100FE0022DF
:10021F00E4FB20A3127F14FE12042A30A3FD7F14E7
:10022F007E0012042A7B0120A2137F147E00120489
:10023F002A30A2FD7F147E0012042A7B0220A11314
:10024F007F147E0012042A30A1FD7F147E00120459
:10025F002A7B0320A0137F147E0012042A30A0FDF6
:0B026F007F147E0012042A7B04AF0302
:01027A002261
:100457005389F0438901758A18758CFCC28DD28C3B
:07046700D2A9D2AFC2B922F5
:10046E0043878075985053890F438920758BF37598
:07047E008DF3C2ABD28E2208
:0804CD008F993099FDC29922BC
:0300000002019367
:0C019300787FE4F6D8FD7581250201DAC2
:1000FF00BB010CE58229F582E5833AF583E02250B6
:10010F0006E92582F8E622BBFE06E92582F8E222FF
:0D011F00E58229F582E5833AF583E4932219
:10012C00EF8DF0A4A8F0CF8CF0A428CE8DF0A42EE7
:02013C00FE22A1
:10013E00BC000BBE0029EF8DF084FFADF022E4CCA5
:10014E00F875F008EF2FFFEE33FEEC33FCEE9DEC6E
:10015E00984005FCEE9DFE0FD5F0E9E4CEFD22EDB4
:10016E00F8F5F0EE8420D21CFEADF075F008EF2FFE
:10017E00FFED33FD4007985006D5F0F222C398FDEF
:05018E000FD5F0EA228C
:10019F0002043FE493A3F8E493A34003F68001F233
:1001AF0008DFF48029E493A3F85407240CC8C33361
:1001BF00C4540F4420C8834004F456800146F6DF30
:1001CF00E4800B01020408102040809004D5E47EE7
:1001DF00019360BCA3FF543F30E509541FFEE49325
:1001EF00A360010ECF54C025E060A840B8E493A3EC
:1001FF00FAE493A3F8E493A3C8C582C8CAC583CA17
:10020F00F0A3C8C582C8CAC583CADFE9DEE780BECE
:0104D8000023
:00000001FF
