:0E09750020202D20202D0020203A20203A00A6
:1004E90012091A7BFF7A0979757D017F011208705B
:1004F9007BFF7A09797C7D017F021208701209A9B4
:1005090012068F120778E524FB7A007518027D011F
:100519007F0112084CE525FB7A007518027D047FDE
:100529000112084CE526FB7A007518027D077F0148
:1005390012084CE527FB7A007518027D017F02122B
:10054900084CE528FB7A007518027D047F02120821
:100559004CE529FB7A007518027D077F0212084CC9
:0205690080A16F
:10092E003F065B4F666D7D077F6F777C395E797111
:03093E00007FBF78
:0408EA007F0F7E00FE
:1008EE00EF1FAC0670011E4C600A7D027CEFDCFE31
:0408FE00DDFC80ECB1
:0109020022D2
:10082700C374089FFFF87401088002C333D8FCF42F
:10083700F590ED90092E93F4F5807F017E00120864
:05084700EE7580FF22A8
:040003008E088F09CB
:10000700ED24B2700302021C24FC700302012524B4
:10001700E6601524FE700302021C24FC7003020133
:1000270025242660030202CCAE08AF097C037DE8D5
:10003700120408742E2FF58274093EF583E493F5B4
:100047000AAE08AF097C037DE81204087E007F64CE
:10005700CFCDCFCECCCE120408742E2FF5827409E3
:100067003EF583E493F50BAE08AF097C037DE812F8
:1000770004087E007F64CFCDCFCECCCE1204087E9D
:10008700007F0ACFCDCFCECCCE120408742E2FF529
:100097008274093EF583E493F50CAE08AF097C033F
:1000A7007DE81204087E007F64CFCDCFCECCCE1280
:1000B70004087E007F0ACFCDCFCECCCE12040874C1
:1000C7002E2DF58274093CF583E493F50DE4FAFBD4
:1000D700740A2BF8E6643F7011740A2BF8E4F60BE8
:1000E700BB00010AEB64034A70E67A007B01C37424
:1000F700089BFFF87401088002C333D8FCF4F5901D
:1001070074092BF8E6F4F5807F017E001208EE757E
:1001170080FF0BBB00010AEB64054A70D122AE08D1
:10012700AF097C037DE8120408742E2FF582740949
:100137003EF583E493F50EAE08AF097C037DE81224
:1001470004087E007F64CFCDCFCECCCE12040874D6
:100157002E2FF58274093EF583E493F50FAE08AFB1
:10016700097C037DE81204087E007F64CFCDCFCEE3
:10017700CCCE1204087E007F0ACFCDCFCECCCE12D4
:100187000408742E2FF58274093EF583E493F51065
:10019700AE08AF097C037DE81204087E007F64CFB8
:1001A700CDCFCECCCE1204087E007F0ACFCDCFCEE6
:1001B700CCCE120408742E2DF58274093CF583E425
:1001C70093F5117A007B04740A2BF8E6643F7011EB
:1001D700740A2BF8E4F60BBB00010AEB64074A70BC
:1001E700E67A007B04C374089BFFF8740108800259
:1001F700C333D8FCF4F59074092BF8E6F4F5807F47
:10020700017E001208EE7580FF0BBB00010AEB644C
:05021700094A70D1222C
:10021C0075120075130A7A007B07AC12AD13AE0889
:10022C00AF09120408742E2DF58274093CF583E491
:10023C0093FF740A2BF8A607AE08AF097C007D0A61
:10024C001204088E088F09EB1B70011ABAFFCBBB86
:10025C00FFC8E4FAFB740A2BF8E6643F7011740AC9
:10026C002BF8E4F60BBB00010AEB64044A70E67A47
:10027C00007B04740A2BF8E6643F7011740A2BF8A7
:10028C00E4F60BBB00010AEB64074A70E67A007BCC
:10029C0001C374089BFFF87401088002C333D8FCB7
:1002AC00F4F59074092BF8E6F4F5807F017E0012CA
:1002BC0008EE7580FF0BBB00010AEB64094A70D194
:0102CC00220F
:06096600C2918F80D292C5
:08096C007F027EEFDEFEDFFCDE
:010974002260
:0A098300C290120966C29202096CCC
:10089300CFCDCFCECCCE1204087C007D0A12040843
:0408A300ED2430FF11
:0A08A700D290120966C29202096C99
:1008B100AE07EEFB7A0064017004ED148009EB646D
:0E08C100024A7009ED243F4480FF1209832291
:10091A007F381209837F0C1209837F061209837FAD
:04092A00010209833A
:0A098D00AC031208B1AF040208A782
:060870008B148A158916A5
:100876001208B1E4FDAB14AA15A9168D8275830082
:0C0886001203C9FF60061208A70D80E9EC
:010892002243
:0A07F600EF24FFFDEE34FFFC7F0A44
:080800008E198F1A8C1B8D1C50
:100808007F017E00E4FBEBC3951CE51B6480F87454
:0E0818008098500AAC19AD1A1203F60B80E856
:0108260022AF
:04084C008A168B1766
:100850001208B1AA18EAFF7E00D394007480948035
:0F086000400D1207F6AC16AD171208931A80E67A
:01086F002266
:04072E008B828A83AD
:100732001208B1C3E58364809480400D7F2B1208B8
:10074200A785832285822380107F2D1208A7C3E408
:100752009582F523E49583F522AA21EAFF7E00D350
:10076200940074809480400D1207F6AC22AD2312DF
:0507720008931A80E667
:01077700225F
:0406E3008A2D8B2EA3
:1006E7001208B1AA2FEAD39400748094804037EAA5
:1006F70024FFFDE434FFFC7F107E00120800AC2DC0
:10070700AD2ECFCDCFCECCCE120408EF540FFEC303
:10071700940A74809480EE5004243080022437FFBA
:060727001208A71A80BFB2
:01072D0022A9
:0407B9008A328B33C2
:1007BD001208B1AA34EAFF7E00D3940074809480AD
:1007CD004026EF24FFFDEE34FFFC7F02120800AC43
:1007DD0032AD33CFCDCFCECCCE120408EF540124A1
:0807ED0030FF1208A71A80CDAD
:0107F50022E1
:1002CD00E4FB75A0FFC2A320A70E7F0FFE1208EE60
:1002DD0030A7FD1208EA7B0120A60B1208EA30A612
:1002ED00FD1208EA7B0520A50B1208EA30A5FD12C8
:1002FD0008EA7B0920A40B1208EA30A4FD1208EAD3
:10030D007B0D75A0FFC2A220A70B1208EA30A7FD36
:10031D001208EA7B0220A60B1208EA30A6FD12088D
:10032D00EA7B0620A50B1208EA30A5FD1208EA7B30
:10033D000A20A40B1208EA30A4FD1208EA7B0E7500
:10034D00A0FFC2A120A70B1208EA30A7FD1208EAF0
:10035D007B0320A60B1208EA30A6FD1208EA7B07E4
:10036D0020A50B1208EA30A5FD1208EA7B0B20A48C
:10037D000B1208EA30A4FD1208EA7B0F75A0FFC22C
:10038D00A020A70B1208EA30A7FD1208EA7B042073
:10039D00A60B1208EA30A6FD1208EA7B0820A50B71
:1003AD001208EA30A5FD1208EA7B0C20A40B1208F6
:0B03BD00EA30A4FD1208EA7B10AF0339
:0103C8002212
:10063300E4FB20A3127F14FE1208EE30A3FD7F1407
:100643007E001208EE7B0120A2137F147E001208A5
:10065300EE30A2FD7F147E001208EE7B0220A11370
:100663007F147E001208EE30A1FD7F147E00120875
:10067300EE7B0320A0137F147E001208EE30A0FD52
:0B0683007F147E001208EE7B04AF0322
:01068E002249
:100903005389F0438901758A18758CFCC28DD28C8A
:07091300D2A9D2AFC2B92244
:1008CF0043878075985053890F438920758BF37533
:0B08DF008DF3C2ABD28ED2AFD2AC22A0
:0809A1008F993099FDC29922E3
:0909970007241601120F1D0F03C5
:0509A900C2B6C2B42239
:10094100EF75F00A84C454F0FEEF75F00A84EE25C9
:03095100F0FF2292
:030954001205D5B4
:0F095700EFC4540F75F00AA4FEEF540F2EFF22C9
:07056B00120941AD077F8674
:02057200A907D7
:10057400D2B6E4FBEBC394087480948050227E00CE
:100584007401A803088005C333CE33CED8F9FFE93C
:10059400F582EF558224FF92B5D2B4C2B40B80D455
:1005A400E4FBEBC394087480948050227E007401B1
:1005B400A803088005C333CE33CED8F9FFEDF58206
:1005C400EF558224FF92B5D2B4C2B40B80D4C2B624
:0105D4002204
:0205D500AD0770
:1005D700E4F9430501D2B6FBEBC394087480948019
:1005E70050227E007401A803088005C333CE33CEA2
:1005F700D8F9FFEDF582EF558224FF92B5C2B4D248
:10060700B40B80D4E4FBEBC3940874809480501738
:10061700D2B4C2B430B50DA8037401088002C33345
:0B062700D8FC42010B80DFC2B6AF011F
:0106320022A5
:10068F00E4FD7F8E120572AF24120941AD077F8CF6
:10069F00120572AF25120941AD077F88120572AF9F
:1006AF002612056BAF27120941AD077F8412057221
:1006BF00AF28120941AD077F82120572AF291209C7
:1006CF0041AD077F80120572AF2A12056B7D807FC7
:0406DF008E02057210
:100778007F8C1209548F247F881209548F257F8615
:100788001205D51209578F267F841205D5120957ED
:100798008F277F821205D51209578F287F8012056F
:1007A800D51209578F297F8A1205D51209578F2A22
:0107B800221E
:0300000002045D9A
:0C045D00787FE4F6D8FD7581360204A417
:1003C900BB010CE58229F582E5833AF583E02250E9
:1003D90006E92582F8E622BBFE06E92582F8E22233
:0D03E900E58229F582E5833AF583E493224D
:1003F600EF8DF0A4A8F0CF8CF0A428CE8DF0A42E1B
:02040600FE22D4
:10040800BC000BBE0029EF8DF084FFADF022E4CCD8
:10041800F875F008EF2FFFEE33FEEC33FCEE9DECA1
:10042800984005FCEE9DFE0FD5F0E9E4CEFD22EDE7
:10043800F8F5F0EE8420D21CFEADF075F008EF2F31
:10044800FFED33FD4007985006D5F0F222C398FD22
:050458000FD5F0EA22BF
:100469000204E9E493A3F8E493A34003F68001F2BC
:1004790008DFF48029E493A3F85407240CC8C33394
:10048900C4540F4420C8834004F456800146F6DF63
:10049900E4800B0102040810204080900997E47E53
:1004A900019360BCA3FF543F30E509541FFEE49358
:1004B900A360010ECF54C025E060A840B8E493A31F
:1004C900FAE493A3F8E493A3C8C582C8CAC583CA4A
:1004D900F0A3C8C582C8CAC583CADFE9DEE780BE02
:0109A0000056
:00000001FF
