:0300000002059B5B
:0C059B00787FE4F6D8FD7581430205E28C
:0E0B2A0020202D20202D0020203A20203A00EF
:1006EF001208DFE514FB7A00752B027D017F0112E2
:1006FF0009E9E515FB7A00752B027D047F011209CC
:10070F00E9E516FB7A00752B027D077F011209E9D7
:10071F00E517FB7A00752B027D017F021209E9E5CF
:10072F0018FB7A00752B027D047F021209E9E51987
:0D073F00FB7A00752B027D077F020209E99D
:1002CD00AF427E00EF6402700B0543E54375F00607
:1002DD008485F043EF64034E705C74142543F80677
:1002ED00D3E5149463748094804003E4F514D3E54E
:1002FD0015940C748094804003751501AD15AF14E1
:10030D0012095DE516D39F4003751601D3E51794C9
:10031D0017748094804003E4F517D3E518943B746B
:10032D008094804003E4F518D3E519943B748094D0
:10033D00804003E4F519E5426404706874142543A4
:10034D00F816D3E514946474809480400375146397
:10035D00E515700375150CAD15AF1412095DE51695
:10036D00D39F4009AD15AF1412095D8F16E51670B8
:10037D0009AD15AF1412095D8F16D3E5179464748A
:10038D008094804003751717D3E518946474809496
:10039D0080400375183BD3E51994647480948040B4
:1003AD000375193BE514FB7A00752B027D017F0166
:1003BD001209E9E515FB7A00752B027D047F011208
:1003CD0009E9E516FB7A00752B027D077F011209FD
:1003DD00E9E517FB7A00752B027D017F021209E911
:1003ED00E518FB7A00752B027D047F021209E9E501
:0E03FD0019FB7A00752B027D077F020209E9C9
:1007FC00120ACF7BFF7A0B792A7D017F01120A0D39
:10080C007BFF7A0B79317D017F02120A0D120B549A
:10081C001207A812074C8F42EF6401700FE541706C
:10082C00057541018006E4F5411207A8E541146005
:0E083C00080470DF1206EF80DA1202CD80D5BC
:100AF6003F065B4F666D7D077F6F777C395E797148
:030B0600007FBFAE
:100AA00007141601120F1D0F030C081F1C1F1E1F19
:070AB0001E1F1F1E1F1E1F69
:040A87007F0F7E005F
:100A8B00EF1FAC0670011E4C600A7D027CEFDCFE92
:040A9B00DDFC80EC12
:010A9F002234
:1009C400C374089FFFF87401088002C333D8FCF491
:1009D400F590ED900AF693F4F5807F017E00120AFB
:0509E4008B7580FF226D
:040003008E1B8F1CA5
:10000700ED24B2700302021C24FC700302012524B4
:10001700E6601524FE700302021C24FC7003020133
:1000270025242660030202CCAE1BAF1C7C037DE8AF
:1000370012054674F62FF582740A3EF583E493F5AC
:100047001DAE1BAF1C7C037DE81205467E007F6456
:10005700CFCDCFCECCCE12054674F62FF582740ADB
:100067003EF583E493F51EAE1BAF1C7C037DE812BF
:1000770005467E007F64CFCDCFCECCCE1205467E1F
:10008700007F0ACFCDCFCECCCE12054674F62FF522
:1000970082740A3EF583E493F51FAE1BAF1C7C0305
:1000A7007DE81205467E007F64CFCDCFCECCCE1241
:1000B70005467E007F0ACFCDCFCECCCE1205467443
:1000C700F62DF582740A3CF583E493F520E4FAFBF8
:1000D700741D2BF8E6643F7011741D2BF8E4F60BC2
:1000E700BB00010AEB64034A70E67A007B01C37424
:1000F700089BFFF87401088002C333D8FCF4F5901D
:10010700741C2BF8E6F4F5807F017E00120A8B75CC
:1001170080FF0BBB00010AEB64054A70D122AE1BBE
:10012700AF1C7C037DE812054674F62FF582740A2E
:100137003EF583E493F521AE1BAF1C7C037DE812EB
:1001470005467E007F64CFCDCFCECCCE1205467458
:10015700F62FF582740A3EF583E493F522AE1BAFC2
:100167001C7C037DE81205467E007F64CFCDCFCE91
:10017700CCCE1205467E007F0ACFCDCFCECCCE1295
:10018700054674F62FF582740A3EF583E493F5234A
:10019700AE1BAF1C7C037DE81205467E007F64CF53
:1001A700CDCFCECCCE1205467E007F0ACFCDCFCEA7
:1001B700CCCE12054674F62DF582740A3CF583E41D
:1001C70093F5247A007B04741D2BF8E6643F7011C5
:1001D700741D2BF8E4F60BBB00010AEB64074A70A9
:1001E700E67A007B04C374089BFFF8740108800259
:1001F700C333D8FCF4F590741C2BF8E6F4F5807F34
:10020700017E00120A8B7580FF0BBB00010AEB64AD
:05021700094A70D1222C
:10021C0075250075260A7A007B07AC25AD26AE1B2A
:10022C00AF1C12054674F62DF582740A3CF583E476
:10023C0093FF741D2BF8A607AE1BAF1C7C007D0A28
:10024C001205468E1B8F1CEB1B70011ABAFFCBBB21
:10025C00FFC8E4FAFB741D2BF8E6643F7011741DA3
:10026C002BF8E4F60BBB00010AEB64044A70E67A47
:10027C00007B04741D2BF8E6643F7011741D2BF881
:10028C00E4F60BBB00010AEB64074A70E67A007BCC
:10029C0001C374089BFFF87401088002C333D8FCB7
:1002AC00F4F590741C2BF8E6F4F5807F017E0012B7
:1002BC000A8B7580FF0BBB00010AEB64094A70D1F5
:0102CC00220F
:060B1B00C2918F80D2920E
:080B21007F027EEFDEFEDFFC27
:010B290022A9
:0A0B3800C290120B1BC292020B21A7
:100A3000CFCDCFCECCCE1205467C007D0A12054626
:040A4000ED2430FF72
:0A0A4400D290120B1BC292020B218C
:100A4E00AE07EEFB7A0064017004ED148009EB64CE
:0E0A5E00024A7009ED243F4480FF120B38223B
:100ACF007F38120B387F0C120B387F06120B387FD2
:040ADF0001020B38CD
:0A0B4200AC03120A4EAF04020A448D
:060A0D008B278A288929CD
:100A1300120A4EE4FDAB27AA28A9298D827583000B
:0C0A2300120507FF6006120A440D80E96E
:010A2F0022A4
:0A099300EF24FFFDEE34FFFC7F0AA5
:08099D008E2C8F2D8C2E8D2F66
:1009A5007F017E00E4FBEBC3952FE52E6480F87490
:0E09B5008098500AAC2CAD2D1205340B80E852
:0109C3002211
:0409E9008A298B2AA2
:1009ED00120A4EAA2BEAFF7E00D3940074809480E5
:0F09FD00400D120993AC29AD2A120A301A80E678
:010A0C0022C7
:040895008B828A8345
:10089900120A4EC3E58364809480400D7F2B120AAF
:1008A9004485833585823680107F2D120A44C3E43E
:1008B9009582F536E49583F535AA34EAFF7E00D3AF
:1008C900940074809480400D120993AC35AD3612B2
:0508D9000A301A80E660
:0108DE0022F7
:04084A008A398B3A22
:10084E00120A4EAA3BEAD39400748094804037EA91
:10085E0024FFFDE434FFFC7F107E0012099DAC39AD
:10086E00AD3ACFCDCFCECCCE120546EF540FFEC350
:10087E00940A74809480EE5004243080022437FF52
:06088E00120A441A80BFAB
:010894002241
:040920008A3E8B3F41
:10092400120A4EAA40EAFF7E00D394007480948099
:100934004026EF24FFFDEE34FFFC7F0212099DAC3C
:100944003EAD3FCFCDCFCECCCE120546EF540124E1
:0809540030FF120A441A80CDA5
:01095C002278
:10040B00E4FB75A0FFC2A320A70E7F0FFE120A8B81
:10041B0030A7FD120A877B0120A60B120A8730A694
:10042B00FD120A877B0520A50B120A8730A5FD124A
:10043B000A877B0920A40B120A8730A4FD120A87B6
:10044B007B0D75A0FFC2A220A70B120A8730A7FD58
:10045B00120A877B0220A60B120A8730A6FD120A0E
:10046B00877B0620A50B120A8730A5FD120A877B16
:10047B000A20A40B120A8730A4FD120A877B0E7583
:10048B00A0FFC2A120A70B120A8730A7FD120A8773
:10049B007B0320A60B120A8730A6FD120A877B0767
:1004AB0020A50B120A8730A5FD120A877B0B20A40F
:1004BB000B120A8730A4FD120A877B0F75A0FFC2AF
:1004CB00A020A70B120A8730A7FD120A877B0420F6
:1004DB00A60B120A8730A6FD120A877B0820A50BF4
:1004EB00120A8730A5FD120A877B0C20A40B120A77
:0B04FB008730A4FD120A877B10AF03BE
:0105060022D2
:10074C00E4FB20A3127F14FE120A8B30A3FD7F144E
:10075C007E00120A8B7B0120A2137F147E00120AEA
:10076C008B30A2FD7F147E00120A8B7B0220A1131A
:10077C007F147E00120A8B30A1FD7F147E00120ABA
:10078C008B7B0320A0137F147E00120A8B30A0FDFC
:0B079C007F147E00120A8B7B04AF0369
:0107A700222F
:100AB8005389F0438901758A18758CFCC28DD28CD4
:070AC800D2A9D2AFC2B9228E
:100A6C0043878075985053890F438920758BF37594
:0B0A7C008DF3C2ABD28ED2AFD2AC2201
:080B4C008F993099FDC2992236
:050B5400C2B6C2B4228C
:100AE300EF75F00A84C454F0FEEF75F00A84EE2526
:030AF300F0FF22EF
:030B090012069140
:0F0B0C00EFC4540F75F00AA4FEEF540F2EFF2212
:07062700120AE3AD077F8614
:02062E00A9071A
:10063000D2B6E4FBEBC394087480948050227E0011
:100640007401A803088005C333CE33CED8F9FFE97F
:10065000F582EF558224FF92B5D2B4C2B40B80D498
:10066000E4FBEBC394087480948050227E007401F4
:10067000A803088005C333CE33CED8F9FFEDF58249
:10068000EF558224FF92B5D2B4C2B40B80D4C2B667
:010690002247
:02069100AD07B3
:10069300E4F9430501D2B6FBEBC39408748094805C
:1006A30050227E007401A803088005C333CE33CEE5
:1006B300D8F9FFEDF582EF558224FF92B5C2B4D28B
:1006C300B40B80D4E4FBEBC394087480948050177C
:1006D300D2B4C2B430B50DA8037401088002C33389
:0B06E300D8FC42010B80DFC2B6AF0163
:0106EE0022E9
:1007A800E4FD7F8E12062EAF14120AE3AD077F8C8C
:1007B80012062EAF15120AE3AD077F8812062EAF78
:1007C80016120627AF17120AE3AD077F8412062E0A
:1007D800AF18120AE3AD077F8212062EAF19120A6C
:1007E800E3AD077F8012062EAF1A1206277D807FA1
:0407F8008E02062E39
:1008DF007F8C120B098F147F88120B098F157F865F
:1008EF00120691120B0C8F167F84120691120B0CAD
:1008FF008F177F82120691120B0C8F187F801206B2
:10090F0091120B0C8F197F8A120691120B0C8F1AF2
:01091F0022B5
:02095D00AB05E8
:10095F00EF24D0FF54037009EF75F06484E5F07055
:10096F000D7E007C017D90120546ED4C700FEB64FF
:10097F000270037F1D2274072BF8E6FF2274072BEA
:03098F00F8E6FF88
:010992002242
:1005A7000207FCE493A3F8E493A34003F68001F267
:1005B70008DFF48029E493A3F85407240CC8C33355
:1005C700C4540F4420C8834004F456800146F6DF24
:1005D700E4800B0102040810204080900AA0E47E0A
:1005E700019360BCA3FF543F30E509541FFEE49319
:1005F700A360010ECF54C025E060A840B8E493A3E0
:10060700FAE493A3F8E493A3C8C582C8CAC583CA0A
:10061700F0A3C8C582C8CAC583CADFE9DEE780BEC2
:010AB700003E
:10050700BB010CE58229F582E5833AF583E02250A9
:1005170006E92582F8E622BBFE06E92582F8E222F3
:0D052700E58229F582E5833AF583E493220D
:10053400EF8DF0A4A8F0CF8CF0A428CE8DF0A42EDB
:02054400FE2295
:10054600BC000BBE0029EF8DF084FFADF022E4CC99
:10055600F875F008EF2FFFEE33FEEC33FCEE9DEC62
:10056600984005FCEE9DFE0FD5F0E9E4CEFD22EDA8
:10057600F8F5F0EE8420D21CFEADF075F008EF2FF2
:10058600FFED33FD4007985006D5F0F222C398FDE3
:050596000FD5F0EA2280
:00000001FF
