:0A03BF004D61747269784B65790096
:1002960012037F7BFF7A0379BF7D017F011203077B
:1002A6001200038F22E52260F7FB7A00750C047DAD
:0802B600017F021202E380E85F
:100393003F065B4F666D7D077F6F777C395E7971B2
:0103A3000059
:040366007F0F7E0087
:10036A00EF1FAC0670011E4C600A7D027CEFDCFEBA
:04037A00DDFC80EC3A
:01037E00225C
:1002BE00C374089FFFF87401088002C333D8FCF49E
:1002CE00F590ED90039393F4F5807F017E00120379
:0502DE006A7580FF229B
:0603A400C2918F80D2928D
:0803AA007F027EEFDEFEDFFCA6
:0103B2002228
:0A03C900C2901203A4C2920203AA1C
:10032A00CFCDCFCECCCE12013E7C007D0A12013E4B
:04033A00ED2430FF7F
:0A033E00D2901203A4C2920203AA97
:10034800AE07EEFB7A0064017004ED148009EB64DB
:0E035800024A7009ED243F4480FF1203C922BF
:10037F007F381203C97F0C1203C97F061203C97F8E
:04038F00010203C99B
:0A03D300AC03120348AF0402033E1E
:060307008B088A09890A37
:10030D00120348E4FDAB08AA09A90A8D8275830082
:0C031D001200FFFF600612033E0D80E995
:0103290022B1
:0A026500EF24FFFDEE34FFFC7F0ADA
:08026F008E0D8F0E8C0F8D1017
:100277007F017E00E4FBEBC39510E50F6480F87403
:0E0287008098500AAC0DAD0E12012C0B80E8D1
:010295002246
:0402E3008A0A8B0BED
:1002E700120348AA0CEAFF7E00D39400748094801E
:0F02F700400D120265AC0AAD0B12032A1A80E605
:0103060022D4
:0401DE008B828A8303
:1001E200120348C3E58364809480400D7F2B120381
:1001F2003E85831685821780107F2D12033EC3E44D
:100202009582F517E49583F516AA15EAFF7E00D3C9
:10021200940074809480400D120265AC16AD1712E2
:05022200032A1A80E62A
:0102270022B4
:040193008A1A8B1B1E
:10019700120348AA1CEAD39400748094804037EA7B
:1001A70024FFFDE434FFFC7F107E0012026FAC1ABF
:1001B700AD1BCFCDCFCECCCE12013EEF540FFEC339
:1001C700940A74809480EE5004243080022437FF10
:0601D70012033E1A80BF76
:0101DD0022FF
:040228008A1F8B207E
:10022C00120348AA21EAFF7E00D3940074809480C4
:10023C004026EF24FFFDEE34FFFC7F0212026FAC70
:10024C001FAD20CFCDCFCECCCE12013EEF5401242A
:08025C0030FF12033E1A80CDB1
:010264002277
:10000300E4FB75A0FFC2A320A70E7F0FFE12036AB5
:1000130030A7FD1203667B0120A60B12036630A6F0
:10002300FD1203667B0520A50B12036630A5FD12A6
:1000330003667B0920A40B12036630A4FD1203663A
:100043007B0D75A0FFC2A220A70B12036630A7FD8C
:100053001203667B0220A60B12036630A6FD120371
:10006300667B0620A50B12036630A5FD1203667B93
:100073000A20A40B12036630A4FD1203667B0E75DF
:10008300A0FFC2A120A70B12036630A7FD120366CF
:100093007B0320A60B12036630A6FD1203667B07C3
:1000A30020A50B12036630A5FD1203667B0B20A46B
:1000B3000B12036630A4FD1203667B0F75A0FFC20B
:1000C300A020A70B12036630A7FD1203667B042052
:1000D300A60B12036630A6FD1203667B0820A50B50
:1000E30012036630A5FD1203667B0C20A40B1203DA
:0B00F3006630A4FD1203667B10AF0313
:0100FE0022DF
:030000000203B345
:0C03B300787FE4F6D8FD758122020296E6
:1000FF00BB010CE58229F582E5833AF583E02250B6
:10010F0006E92582F8E622BBFE06E92582F8E222FF
:0D011F00E58229F582E5833AF583E4932219
:10012C00EF8DF0A4A8F0CF8CF0A428CE8DF0A42EE7
:02013C00FE22A1
:10013E00BC000BBE0029EF8DF084FFADF022E4CCA5
:10014E00F875F008EF2FFFEE33FEEC33FCEE9DEC6E
:10015E00984005FCEE9DFE0FD5F0E9E4CEFD22EDB4
:10016E00F8F5F0EE8420D21CFEADF075F008EF2FFE
:10017E00FFED33FD4007985006D5F0F222C398FDEF
:05018E000FD5F0EA228C
:00000001FF
