:1004600050617373776F7264733A0057656C636F92
:100470006D650061646D696E00455252002D2D2D31
:020480002D004D
:0E04FC00040F2D2D2D2D020A0000020807D43A
:1000FF001204D77BFF7A0479607D017F0112043DE2
:10010F001200038F0CE50C60F7FB7A00D3940A748E
:10011F00809480503AC3E50B9404E50A9400502F65
:10012F00740F250BF8762AAE0DAF0E7C007D0A12E8
:10013F0001FE8E0D8F0EE50C75F00A84E5F0250E8D
:10014F00F50EE4350DF50D050BE50B7002050AEB09
:10015F00640B4A704CE50E65097004E50D65087077
:10016F00261204D77BFF7A04796B7D017F0112047D
:10017F003D7BFF7A0479737D017F0212043D7F205E
:10018F007E4E1204C280157BFF7A0479797D0E7F33
:10019F000112043DE4F50DF50E750F7DE4F50AF53A
:1001AF000BE50C640C700BF50DF50EF50AF50B75E0
:1001BF000F7D7B007A00790F7D017F0212043D02D3
:0201CF00010F1E
:1004EB003F065B4F666D7D077F6F777C395E797159
:0104FB000000
:0404BE007F0F7E002E
:1004C200EF1FAC0670011E4C600A7D027CEFDCFE61
:0404D200DDFC80ECE1
:0104D6002203
:1003F400C374089FFFF87401088002C333D8FCF467
:10040400F590ED9004EB93F4F5807F017E001204E7
:05041400C27580FF220B
:06050B00C2918F80D29224
:080511007F027EEFDEFEDFFC3D
:0105190022BF
:0A051A00C29012050BC292020511F7
:10048200CFCDCFCECCCE1202107C007D0A1202104C
:04049200ED2430FF26
:0A049600D29012050BC2920205116C
:1004A000AE07EEFB7A0064017004ED148009EB6482
:0E04B000024A7009ED243F4480FF12051A2213
:1004D7007F3812051A7F0C12051A7F0612051A7F3C
:0404E7000102051AEF
:0A052400AC031204A0AF0402049619
:06043D008B2D8A2E892F91
:100443001204A0E4FDAB2DAA2EA92F8D8275830083
:0C0453001201D1FF60061204960D80E932
:01045F00227A
:0A03C300EF24FFFDEE34FFFC7F0A7B
:0803CD008E298F2A8C2B8D2C48
:1003D5007F017E00E4FBEBC3952CE52B6480F8746C
:0E03E5008098500AAC29AD2A1201FE0B80E868
:0103F30022E7
:040419008A1C8B1D91
:10041D001204A0AA1EEAFF7E00D39400748094807B
:0F042D00400D1203C3AC1CAD1D1204821A80E6F1
:01043C00229D
:04033C008B828A83A3
:100340001204A0C3E58364809480400D7F2B1204C7
:100350009685831885821980107F2D120496C3E438
:100360009582F519E49583F518AA17EAFF7E00D364
:10037000940074809480400D1203C3AC18AD191220
:0503800004821A80E672
:010385002255
:0402F1008A218B22B1
:1002F5001204A0AA23EAD39400748094804037EABC
:1003050024FFFDE434FFFC7F107E001203CDAC21F9
:10031500AD22CFCDCFCECCCE120210EF540FFEC3FF
:10032500940A74809480EE5004243080022437FFB0
:060335001204961A80BFBD
:01033B00229F
:040386008A268B2711
:10038A001204A0AA28EAFF7E00D394007480948005
:10039A004026EF24FFFDEE34FFFC7F021203CDACB2
:1003AA0026AD27CFCDCFCECCCE120210EF540124EA
:0803BA0030FF1204961A80CDF9
:0103C2002218
:10000300E4FB75A0FFC2A320A70E7F0FFE1204C25C
:1000130030A7FD1204BE7B0120A60B1204BE30A63E
:10002300FD1204BE7B0520A50B1204BE30A5FD12F4
:1000330004BE7B0920A40B1204BE30A4FD1204BE2F
:100043007B0D75A0FFC2A220A70B1204BE30A7FD33
:100053001204BE7B0220A60B1204BE30A6FD1204BE
:10006300BE7B0620A50B1204BE30A5FD1204BE7B89
:100073000A20A40B1204BE30A4FD1204BE7B0E752D
:10008300A0FFC2A120A70B1204BE30A7FD1204BE1D
:100093007B0320A60B1204BE30A6FD1204BE7B0711
:1000A30020A50B1204BE30A5FD1204BE7B0B20A4B9
:1000B3000B1204BE30A4FD1204BE7B0F75A0FFC259
:1000C300A020A70B1204BE30A7FD1204BE7B0420A0
:1000D300A60B1204BE30A6FD1204BE7B0820A50B9E
:1000E3001204BE30A5FD1204BE7B0C20A40B120427
:0B00F300BE30A4FD1204BE7B10AF0362
:0100FE0022DF
:0300000002026594
:0C026500787FE4F6D8FD75812F0202AC12
:1001D100BB010CE58229F582E5833AF583E02250E3
:1001E10006E92582F8E622BBFE06E92582F8E2222D
:0D01F100E58229F582E5833AF583E4932247
:1001FE00EF8DF0A4A8F0CF8CF0A428CE8DF0A42E15
:02020E00FE22CE
:10021000BC000BBE0029EF8DF084FFADF022E4CCD2
:10022000F875F008EF2FFFEE33FEEC33FCEE9DEC9B
:10023000984005FCEE9DFE0FD5F0E9E4CEFD22EDE1
:10024000F8F5F0EE8420D21CFEADF075F008EF2F2B
:10025000FFED33FD4007985006D5F0F222C398FD1C
:050260000FD5F0EA22B9
:100271000200FFE493A3F8E493A34003F68001F2A4
:1002810008DFF48029E493A3F85407240CC8C3338E
:10029100C4540F4420C8834004F456800146F6DF5D
:1002A100E4800B01020408102040809004FCE47EED
:1002B100019360BCA3FF543F30E509541FFEE49352
:1002C100A360010ECF54C025E060A840B8E493A319
:1002D100FAE493A3F8E493A3C8C582C8CAC583CA44
:1002E100F0A3C8C582C8CAC583CADFE9DEE780BEFC
:01050A0000F0
:00000001FF
