:0B03460041444A204E5443205247001F
:10011E001203177BFF7A0379467D017F011202A33A
:10012E007F9C1200978E228F23750C03AB23AA227D
:10013E007D017F0212027F7FDC1200978E228F23B9
:10014E00750C03AB23AA227D057F0212027F7FACC2
:10015E001200978E228F23750C03AB23AA227D09E2
:0E016E007F0212027F7F057E0012030280B224
:10030200EF1FAC0670011E4C600A7D027CEFDCFE22
:04031200DDFC80ECA2
:0103160022C4
:06032B00C2A58F80D2A7DD
:080331007F027EEFDEFEDFFC1F
:0103390022A1
:0A035100C2A612032BC2A70203315B
:1002C600CFCDCFCECCCE1200427C007D0A120042AA
:0402D600ED2430FFE4
:0A02DA00D2A612032BC2A7020331C3
:1002E400AE07EEFB7A0064017004ED148009EB6440
:0E02F400024A7009ED243F4480FF120351229C
:100317007F381203517F0C1203517F061203517F5E
:04032700010203517B
:0A035B00AC031202E4AF040202DA60
:0602A3008B088A09890A9C
:1002A9001202E4E4FDAB08AA09A90A8D827583004C
:0C02B900120003FF60061202DA0D80E95B
:0102C5002216
:0A024E00EF24FFFDEE34FFFC7F0AF1
:080258008E0D8F0E8C0F8D102E
:100260007F017E00E4FBEBC39510E50F6480F8741A
:0E0270008098500AAC0DAD0E1200300B80E8E5
:01027E00225D
:04027F008A0A8B0B51
:100283001202E4AA0CEAFF7E00D3940074809480E7
:0F029300400D12024EAC0AAD0B1202C61A80E6E5
:0102A2002239
:0401C7008B828A831A
:1001CB001202E4C3E58364809480400D7F2B1202FE
:1001DB00DA85831685821780107F2D1202DAC3E42D
:1001EB009582F517E49583F516AA15EAFF7E00D3E1
:1001FB00940074809480400D12024EAC16AD171211
:05020B0002C61A80E6A6
:0102100022CB
:04017C008A1A8B1B35
:100180001202E4AA1CEAD39400748094804037EAF7
:1001900024FFFDE434FFFC7F107E00120258AC1AED
:1001A000AD1BCFCDCFCECCCE120042EF540FFEC34D
:1001B000940A74809480EE5004243080022437FF27
:0601C0001202DA1A80BFF2
:0101C6002216
:040211008A1F8B2095
:100215001202E4AA21EAFF7E00D394007480948040
:100225004026EF24FFFDEE34FFFC7F02120258AC9E
:100235001FAD20CFCDCFCECCCE120042EF5401243E
:0802450030FF1202DA1A80CD2D
:01024D00228E
:020097008F08D0
:10009900C2B6C2B5E4F509C3E50994087480948031
:1000A90050287E007480A809088006CEA2E713CEE6
:1000B90013D8F8FFEF550824FF92B4D2B67F017E1A
:1000C90000120302C2B6050980CDE4F509C3E509AA
:1000D900941074809480501FD2B6C2B630B7147E83
:1000E90080E4A809088005CEC313CE13D8F9420BC2
:1000F900EE420A050980D6D2B5E50830E306E50ADD
:10010900FF7E0022E50AC4F854F0C868FEE50BC476
:04011900540F48FF38
:01011D0022BF
:0300000002033ABE
:0C033A00787FE4F6D8FD75812302011ED7
:10000300BB010CE58229F582E5833AF583E02250B2
:1000130006E92582F8E622BBFE06E92582F8E222FC
:0D002300E58229F582E5833AF583E4932216
:10003000EF8DF0A4A8F0CF8CF0A428CE8DF0A42EE4
:02004000FE229E
:10004200BC000BBE0029EF8DF084FFADF022E4CCA2
:10005200F875F008EF2FFFEE33FEEC33FCEE9DEC6B
:10006200984005FCEE9DFE0FD5F0E9E4CEFD22EDB1
:10007200F8F5F0EE8420D21CFEADF075F008EF2FFB
:10008200FFED33FD4007985006D5F0F222C398FDEC
:050092000FD5F0EA2289
:00000001FF
