:100361005772697465204F4B2100202020202020E6
:100371002020200052656164204F4B210020202065
:06038100202020202000D6
:10000300120441750C05AB23AA227D017F01120363
:10001300871201748F24EF640170150523E52370A3
:10002300020522750C05FBAA227D017F01120387BD
:10003300E52464027016E523152370021522750C5E
:1000430005AB23AA227D017F01120387E524640304
:10005300703DAD23FF1203CE7F057E0012042CE515
:1000630022FD7F011203CE7F057E0012042C7BFF4D
:100073007A0379617D017F021203AB7FE87E03126D
:10008300042C7BFF7A03796B7D017F021203ABE5BE
:100093002464046003020014FF12030A7522008F14
:1000A300237F0112030AEFFEEE4222750C05AB23F8
:1000B300AA227D017F011203877BFF7A0379757D75
:1000C300017F021203AB7FE87E0312042C7BFF7ACD
:0D00D30003797E7D017F021203AB02001451
:09049A00D2B3D2B2C2B3C2B22245
:0704A300C2B3D2B2D2B322B2
:0202A700AD07A1
:1002A900E4FBEBC394087480948050237E0074802F
:1002B900A803088006CEA2E713CE13D8F8FFEDF500
:0F02C90082EF558224FF92B3D2B2C2B20B80D320
:0102D8002203
:10033A00E4FFD2B3FEEEC39408748094805017D2BF
:10034A00B230B30DA8067480088002C313D8FC42E9
:06035A0007C2B20E80DFB5
:01036000227A
:0A047C00EF24FF92B3D2B2C2B22205
:0B046400D2B3D2B2A2B3E433FFC2B2A5
:01046F00226A
:10017400E4F50820A3137F14FE12042C30A3FD7FA2
:10018400147E0012042C75080120A2147F147E0032
:1001940012042C30A2FD7F147E0012042C75080278
:1001A40020A1147F147E0012042C30A1FD7F147E44
:1001B4000012042C75080320A0147F147E0012047E
:1001C4002C30A0FD7F147E0012042C750804AF08A7
:0101D4002208
:06045500C2918F80D292DB
:08045B007F027EEFDEFEDFFCF4
:010463002276
:0A048600C290120455C29202045BFA
:1003F000CFCDCFCECCCE12011F7C007D0A12011FC3
:04040000ED2430FFB8
:0A040400D290120455C29202045B6C
:10040E00AE07EEFB7A0064017004ED148009EB6414
:0E041E00024A7009ED243F4480FF120486223A
:100441007F381204867F0C1204867F061204867F91
:04045100010204861A
:0A049000AC0312040EAF04020404D2
:0603AB008B088A09890A93
:1003B10012040EE4FDAB08AA09A90A8D8275830017
:0C03C1001200E0FF60061204040D80E949
:0103CD00220D
:0A02D900EF24FFFDEE34FFFC7F0A66
:0802E3008E0D8F0E8C0F8D10A3
:1002EB007F017E00E4FBEBC39510E50F6480F8748F
:0E02FB008098500AAC0DAD0E12010D0B80E87C
:0103090022D1
:040387008A0A8B0B48
:10038B0012040EAA0CEAFF7E00D3940074809480B2
:0F039B00400D1202D9AC0AAD0B1203F01A80E626
:0103AA002230
:040220008B828A83C0
:1002240012040EC3E58364809480400D7F2B120476
:100234000485831685821780107F2D120404C3E47D
:100244009582F517E49583F516AA15EAFF7E00D387
:10025400940074809480400D1202D9AC16AD17122C
:0502640003F01A80E622
:010269002272
:0401D5008A1A8B1BDC
:1001D90012040EAA1CEAD39400748094804037EA72
:1001E90024FFFDE434FFFC7F107E001202E3AC1A09
:1001F900AD1BCFCDCFCECCCE12011FEF540FFEC316
:10020900940A74809480EE5004243080022437FFCD
:060219001204041A80BF6C
:01021F0022BC
:04026A008A1F8B203C
:10026E0012040EAA21EAFF7E00D3940074809480BB
:10027E004026EF24FFFDEE34FFFC7F021202E3ACBA
:10028E001FAD20CFCDCFCECCCE12011FEF54012407
:08029E0030FF1204041A80CDA8
:0102A6002235
:10042C00EF1FAC0670011E4C600A7D027CEFDCFEF7
:04043C00DDFC80EC77
:010440002299
:1003CE008F088D0912049A7FA01202A7120464AF3F
:1003DE00081202A7120464AF091202A712046402E3
:0203EE0004A366
:02030A008F085A
:10030C0012049A7FA01202A7120464AF081202A76B
:10031C0012046412049A7FA11202A712046412033D
:0D032C003A8F097F0112047C1204A3AF096F
:0103390022A1
:0300000002047087
:0C047000787FE4F6D8FD758124020003BB
:1000E000BB010CE58229F582E5833AF583E02250D5
:1000F00006E92582F8E622BBFE06E92582F8E2221F
:0D010000E58229F582E5833AF583E4932238
:10010D00EF8DF0A4A8F0CF8CF0A428CE8DF0A42E06
:02011D00FE22C0
:10011F00BC000BBE0029EF8DF084FFADF022E4CCC4
:10012F00F875F008EF2FFFEE33FEEC33FCEE9DEC8D
:10013F00984005FCEE9DFE0FD5F0E9E4CEFD22EDD3
:10014F00F8F5F0EE8420D21CFEADF075F008EF2F1D
:10015F00FFED33FD4007985006D5F0F222C398FD0E
:05016F000FD5F0EA22AB
:00000001FF
