:03020F00011700D4
:100168001201E3E4F5141201078F15EF64017028FA
:100178000517531703AF17FEEF7002F514EF64016C
:100188004E700375141EEF64024E7003751432EF3F
:1001980064034E7003751464E517FD7C007F01123B
:0401A800009A80C277
:03000B000201AC43
:0601AC00C0E0C0F0C0D06D
:1001B200758A9C758CFF0513E513700205120516EE
:1001C200E51675F0648485F016E516C3951450069D
:0A01D200C2A0D2908004D2A0C29017
:0701DC00D0D0D0F0D0E032DA
:1001FA00EF1FAC0670011E4C600A7D027CEFDCFE2C
:04020A00DDFC80ECAB
:01020E0022CD
:10010700E4F51820B1137F14FE1201FA30B1FD7F18
:10011700147E001201FA75180120B0147F147E00B6
:100127001201FA30B0FD7F147E001201FA75180231
:1001370020B2147F147E001201FA30B2FD7F147EC4
:10014700001201FA75180320B3147F147E00120100
:10015700FA30B3FD7F147E001201FA751804AF1848
:010167002275
:0C0212000A083F065B4F666D7D077F6F9A
:10009A00EF14B4080050549000AF75F003A4C58360
:1000AA0025F0C583730200C70200CB0200CF02000D
:1000BA00D30200D70200DF0200E70200EFD2A480D9
:1000CA000ED2A48012D2A48016D2A4801AC2A4D2BC
:1000DA00A3D2A28016C2A4D2A3C2A2800EC2A4C274
:1000EA00A3D2A28006C2A4C2A3C2A274082DF8E6B3
:0D00FA00F5807F017E001201FAE4F58022FE
:1001E3005389F0438901758A9C758CFFC28DD28C2B
:0701F300D2A9D2AFC2B9226C
:0300000002000EED
:0C000E00787FE4F6D8FD758118020055DB
:10001A00020168E493A3F8E493A34003F68001F293
:10002A0008DFF48029E493A3F85407240CC8C333E7
:10003A00C4540F4420C8834004F456800146F6DFB6
:10004A00E4800B010204081020408090020FE47E35
:10005A00019360BCA3FF543F30E509541FFEE493AB
:10006A00A360010ECF54C025E060A840B8E493A372
:10007A00FAE493A3F8E493A3C8C582C8CAC583CA9D
:10008A00F0A3C8C582C8CAC583CADFE9DEE780BE55
:01021E0000DF
:00000001FF
