:0C0668000216000002180000021A000038
:1002E1001206831206FF8F207E00EF6401700CE579
:1002F1001E70047D0180027D008D1EEF64024E7030
:1003010006F51FF51CF51DE52064037029AD1DFFE1
:1003110012060B7F057E001206B0AD1C7F0112068E
:100321000B7F057E001206B0AD1F7F0212060B7F08
:10033100057E001206B0E52064047014FF12058CDE
:100341008F1D7F0112058C8F1C7F0212058C8F1F60
:10035100E51D75F00A84FD7F01120003E51D75F0AE
:100361000A84ADF07F021200037D117F03120003A6
:10037100E51C75F00A84FD7F04120003E51C75F08D
:100381000A84ADF07F051200037D117F0612000380
:10039100E51F75F00A84FD7F07120003E51F75F064
:0C03A1000A84ADF07F081200030202E4A1
:1005BC00E51E64017021051FC3E51F9464748094CB
:1005CC00804014E4F51F051CE51C943C7480948059
:0805DC004005E4F51C051D2299
:03000B000203AD40
:1003AD00C0E0C0F0C083C082C0D075D000C000C016
:0D03BD0001C002C003C004C005C006C00797
:1003CA00758A18758CFC0517E51770020516C39413
:1003DA0014E5169400400975160075170012051ADF
:1003EA000519E51970020518C39402E5189400402E
:1003FA000975180075190012064B051BE51B7002DA
:10040A00051AC3940AE51A94004009751A00751B67
:04041A00001205BC0B
:10041E00D007D006D005D004D003D002D001D00032
:0B042E00D0D0D082D083D0F0D0E032DC
:1006B000EF1FAC0670011E4C600A7D027CEFDCFE71
:0406C000DDFC80ECF1
:0106C4002213
:0506FF00AF2DE4F52D14
:0107040022D2
:10069A00E4FF20A3010F20A2027F0220A1027F0310
:0506AA0020A0027F0406
:0106AF002228
:10051A00852B2C12069A8F2BAF2C7E00EF6401706C
:10052A0007E52B7003752D01EF64024E7007E52B6A
:10053A007003752D02E52C64037007E52B700375B3
:0F054A002D03E52C64047007E52B7003752D0459
:01055900227F
:1006C5003F065B4F666D7D077F6F777C395E79717D
:0406D50000407FBFA3
:0E0674000922001010101010101010012101AA
:0700030074222FF8A605226C
:10062D007580FFC374089FFFF87401088002C333FF
:0E063D00D8FCF4F590ED9006C593F4F58022FC
:04000E008E088F09C0
:10001200E4F512F513ED24B2700302020C24FC7015
:100022000302012524E6601524FE700302020C245B
:10003200FC7003020125242660030202E0AE08AF31
:10004200097C037DE81204C574C52FF58274063E4F
:10005200F583E493F50AAE08AF097C037DE8120448
:10006200C5AA04AB057D647C00AF03AE021204C5D1
:1000720074C52FF58274063EF583E493F50B7D6417
:100082007C00AF03AE021204C5AA04AB057D0A7C54
:1000920000AF03AE021204C574C52FF58274063E8A
:1000A200F583E493F50C7D0A7C00AF03AE021204E3
:1000B200C574C52DF58274063CF583E493F50DE411
:1000C200F512F513AF13740A2FF8E6643F70147437
:1000D2000A2FF8E4F60513E51370020512640345CE
:1000E2001270E1751200751301AF13C374089FFEFD
:1000F200F87401088002C333D8FCF4F59074092F18
:10010200F8E6F4F5807F017E001206B07580FF05E7
:1001120013E51370020512D39404E51264809480EF
:1001220040C722AE08AF097C037DE81204C574C53E
:100132002FF58274063EF583E493F50EAE08AF09FF
:100142007C037DE81204C5AA04AB057D647C00AF84
:1001520003AE021204C574C52FF58274063EF58300
:10016200E493F50F7D647C00AF03AE021204C5AACE
:1001720004AB057D0A7C00AF03AE021204C574C550
:100182002FF58274063EF583E493F5107D0A7C0018
:10019200AF03AE021204C574C52DF58274063CF598
:1001A20083E493F511751200751304AF13740A2FCB
:1001B200F8E6643F7014740A2FF8E4F60513E513A9
:1001C200700205126407451270E17512007513047E
:1001D200AF13C374089FFEF87401088002C333D8BA
:1001E200FCF4F59074092FF8E6F4F5807F017E00A7
:1001F2001206B07580FF0513E51370020512D39441
:0A02020008E5126480948040C722D2
:10020C0075140075150A751200751307AC14AD152D
:10021C00AE08AF091204C574C52DF58274063CF501
:10022C0083E493FF740A2513F8A607AE08AF097C84
:10023C00007D0A1204C58E088F09E5131513700290
:10024C001512E513B4FFC5E512B4FFC0E4F512F5C1
:10025C0013AF13740A2FF8E6643F7014740A2FF866
:10026C00E4F60513E513700205126404451270E1FF
:10027C00751200751304AF13740A2FF8E6643F70FF
:10028C0014740A2FF8E4F60513E5137002051264D2
:10029C0007451270E1751200751301AF13C3740892
:1002AC009FFEF87401088002C333D8FCF4F59074F7
:1002BC00092FF8E6F4F5807F017E001206B07580F8
:1002CC00FF0513E51370020512D39408E512648040
:0402DC00948040C703
:0102E00022FB
:10064B0074222521F8E6FDAF2112062D0521C3E505
:0C065B00219409748094804003752101F3
:010667002270
:100683005389F0438901758A18758CFCC28DD28C0D
:07069300D2A9D2AFC2B922C7
:10060B008F2E8D2F1206EF7FA012055A1206D9AF2F
:10061B002E12055A1206D9AF2F12055A1206D902FD
:02062B0006F8CF
:02058C008F2EB0
:10058E001206EF7FA012055A1206D9AF2E12055A87
:10059E001206D91206EF7FA112055A1206D91205BC
:0D05AE00E48F2F7F011206E51206F8AF2F33
:0105BB00221D
:0906EF00D2B3D2B2C2B3C2B222EE
:0706F800C2B3D2B2D2B3225B
:02055A00AD07EB
:10055C00E4FBEBC394087480948050237E00748079
:10056C00A803088006CEA2E713CE13D8F8FFEDF54A
:0F057C0082EF558224FF92B3D2B2C2B20B80D36A
:01058B00224D
:1005E400E4FFD2B3FEEEC39408748094805017D213
:1005F400B230B30DA8067480088002C313D8FC423D
:0606040007C2B20E80DF08
:01060A0022CD
:0A06E500EF24FF92B3D2B2C2B2229A
:0B06D900D2B3D2B2A2B3E433FFC2B22E
:0106E40022F3
:03000000020439BE
:0C043900787FE4F6D8FD75812F02048066
:1004C500BC000BBE0029EF8DF084FFADF022E4CC1B
:1004D500F875F008EF2FFFEE33FEEC33FCEE9DECE4
:1004E500984005FCEE9DFE0FD5F0E9E4CEFD22ED2A
:1004F500F8F5F0EE8420D21CFEADF075F008EF2F74
:10050500FFED33FD4007985006D5F0F222C398FD64
:050515000FD5F0EA2201
:100445000202E1E493A3F8E493A34003F68001F2EA
:1004550008DFF48029E493A3F85407240CC8C333B8
:10046500C4540F4420C8834004F456800146F6DF87
:10047500E4800B0102040810204080900668E47EA9
:10048500019360BCA3FF543F30E509541FFEE4937C
:10049500A360010ECF54C025E060A840B8E493A343
:1004A500FAE493A3F8E493A3C8C582C8CAC583CA6E
:1004B500F0A3C8C582C8CAC583CADFE9DEE780BE26
:010682000077
:00000001FF
