:0E053700434C4F434B3A0020203A20203A001C
:0400030002180000DF
:1002D9001205031204EC7BFF7A0579377D017F0152
:1002E9001204747BFF7A05793E7D017F0212047442
:1002F900E51BFB7A00750C027D017F02120450E5B3
:100309001CFB7A00750C027D047F02120450E51A69
:0F031900FB7A00750C027D077F0212045080D121
:03000B0002028668
:04028600C0E0C0D044
:10028A00758A18758CFC0519E51970020518C3944E
:10029A00E8E51894034033751800751900051AE546
:1002AA001A943C748094804021751A00051CE51C40
:1002BA00943C748094804012751C00051BE51B94C5
:0A02CA0018748094804003751B0037
:0502D400D0D0D0E032A3
:100517003F065B4F666D7D077F6F777C395E79712C
:0105270000D3
:0404D3007F0F7E0019
:1004D700EF1FAC0670011E4C600A7D027CEFDCFE4C
:0404E700DDFC80ECCC
:0104EB0022EE
:10042B00C374089FFFF87401088002C333D8FCF42F
:10043B00F590ED90051793F4F5807F017E00120483
:05044B00D77580FF22BF
:06052800C2918F80D29207
:08052E007F027EEFDEFEDFFC20
:0105360022A2
:0A054500C290120528C29202052E92
:10049700CFCDCFCECCCE1201497C007D0A120149C7
:0404A700ED2430FF11
:0A04AB00D290120528C29202052E1D
:1004B500AE07EEFB7A0064017004ED148009EB646D
:0E04C500024A7009ED243F4480FF12054522D3
:100503007F381205457F0C1205457F061205457F8E
:040513000102054597
:0A054F00AC031204B5AF040204ABC4
:060474008B088A09890AC9
:10047A001204B5E4FDAB08AA09A90A8D82758300A6
:0C048A0012010AFF60061204AB0D80E9AD
:010496002243
:0A03FA00EF24FFFDEE34FFFC7F0A44
:080404008E0D8F0E8C0F8D1080
:10040C007F017E00E4FBEBC39510E50F6480F8746C
:0E041C008098500AAC0DAD0E1201370B80E82F
:01042A0022AF
:040450008A0A8B0B7E
:100454001204B5AA0CEAFF7E00D394007480948041
:0F046400400D1203FAAC0AAD0B1204971A80E692
:010473002266
:040373008B828A836C
:100377001204B5C3E58364809480400D7F2B12047B
:10038700AB85831685821780107F2D1204ABC3E4DB
:100397009582F517E49583F516AA15EAFF7E00D333
:1003A700940074809480400D1203FAAC16AD1712B6
:0503B70004971A80E626
:0103BC00221E
:040328008A1F8B207D
:10032C001204B5AA21EAD39400748094804037EA71
:10033C0024FFFDE434FFFC7F107E00120404AC1F8C
:10034C00AD20CFCDCFCECCCE120149EF540FFEC392
:10035C00940A74809480EE5004243080022437FF79
:06036C001204AB1A80BF71
:010372002268
:0403BD008A248B25DE
:1003C1001204B5AA26EAFF7E00D3940074809480BB
:1003D1004026EF24FFFDEE34FFFC7F02120404AC43
:1003E10024AD25CFCDCFCECCCE120149EF5401247F
:0803F10030FF1204AB1A80CDAD
:0103F90022E1
:10000E00E4FB75A0FFC2A320A70E7F0FFE1204D73C
:10001E0030A7FD1204D37B0120A60B1204D330A609
:10002E00FD1204D37B0520A50B1204D330A5FD12BF
:10003E0004D37B0920A40B1204D330A4FD1204D3E5
:10004E007B0D75A0FFC2A220A70B1204D330A7FD13
:10005E001204D37B0220A60B1204D330A6FD120489
:10006E00D37B0620A50B1204D330A5FD1204D37B3F
:10007E000A20A40B1204D330A4FD1204D37B0E75F8
:10008E00A0FFC2A120A70B1204D330A7FD1204D3E8
:10009E007B0320A60B1204D330A6FD1204D37B07DC
:1000AE0020A50B1204D330A5FD1204D37B0B20A484
:1000BE000B1204D330A4FD1204D37B0F75A0FFC224
:1000CE00A020A70B1204D330A7FD1204D37B04206B
:1000DE00A60B1204D330A6FD1204D37B0820A50B69
:1000EE001204D330A5FD1204D37B0C20A40B1204F2
:0B00FE00D330A4FD1204D37B10AF032D
:0101090022D3
:10022A00E4FB20A3127F14FE1204D730A3FD7F142F
:10023A007E001204D77B0120A2137F147E001204D1
:10024A00D730A2FD7F147E001204D77B0220A113AF
:10025A007F147E001204D730A1FD7F147E001204A1
:10026A00D77B0320A0137F147E001204D730A0FD91
:0B027A007F147E001204D77B04AF034A
:010285002256
:1004EC005389F0438901758A18758CFCC28DD28CA6
:0704FC00D2A9D2AFC2B92260
:0300000002019E5C
:0C019E00787FE4F6D8FD7581260201E5AB
:10010A00BB010CE58229F582E5833AF583E02250AA
:10011A0006E92582F8E622BBFE06E92582F8E222F4
:0D012A00E58229F582E5833AF583E493220E
:10013700EF8DF0A4A8F0CF8CF0A428CE8DF0A42EDC
:02014700FE2296
:10014900BC000BBE0029EF8DF084FFADF022E4CC9A
:10015900F875F008EF2FFFEE33FEEC33FCEE9DEC63
:10016900984005FCEE9DFE0FD5F0E9E4CEFD22EDA9
:10017900F8F5F0EE8420D21CFEADF075F008EF2FF3
:10018900FFED33FD4007985006D5F0F222C398FDE4
:050199000FD5F0EA2281
:1001AA000202D9E493A3F8E493A34003F68001F290
:1001BA0008DFF48029E493A3F85407240CC8C33356
:1001CA00C4540F4420C8834004F456800146F6DF25
:1001DA00E4800B0102040810204080900003E47EB2
:1001EA00019360BCA3FF543F30E509541FFEE4931A
:1001FA00A360010ECF54C025E060A840B8E493A3E1
:10020A00FAE493A3F8E493A3C8C582C8CAC583CA0B
:10021A00F0A3C8C582C8CAC583CADFE9DEE780BEC3
:0100070000F8
:00000001FF
