:1002F2001201938F25E52524FE600E14600F146011
:1003020010240370EBB28080E7B28180E3B2828076
:05031200DFB28380DB77
:100403003F065B4F666D7D077F6F777C395E797141
:0104130000E8
:0403BF007F0F7E002E
:1003C300EF1FAC0670011E4C600A7D027CEFDCFE61
:0403D300DDFC80ECE1
:0103D7002203
:10031700C374089FFFF87401088002C333D8FCF444
:10032700F590ED90040393F4F5807F017E001203AE
:05033700C37580FF22E8
:06041400C2918F80D2921C
:08041A007F027EEFDEFEDFFC35
:0104220022B7
:0A042F00C290120414C29202041AD3
:10038300CFCDCFCECCCE12013E7C007D0A12013EF2
:04039300ED2430FF26
:0A039700D290120414C29202041A5C
:1003A100AE07EEFB7A0064017004ED148009EB6482
:0E03B100024A7009ED243F4480FF12042F22FF
:1003EF007F3812042F7F0C12042F7F0612042F7FE9
:0403FF000102042FC4
:0A043900AC031203A1AF0402039705
:060360008B228A23892490
:100366001203A1E4FDAB22AA23A9248D8275830082
:0C0376001200FFFF60061203970D80E9E3
:010382002258
:0A02C100EF24FFFDEE34FFFC7F0A7E
:0802CB008E1E8F1F8C208D2177
:1002D3007F017E00E4FBEBC39521E5206480F87485
:0E02E3008098500AAC1EAD1F12012C0B80E853
:0102F10022EA
:04033C008A118B1285
:100340001203A1AA13EAFF7E00D394007480948064
:0F035000400D1202C1AC11AD121203831A80E6E8
:01035F00227B
:04023A008B828A83A6
:10023E001203A1C3E58364809480400D7F2B1203CB
:10024E009785830D85820E80107F2D120397C3E450
:10025E009582F50EE49583F50DAA0CEAFF7E00D388
:10026E00940074809480400D1202C1AC0DAD0E123C
:05027E0003831A80E675
:010283002258
:0401EF008A168B17CA
:1001F3001203A1AA18EAD39400748094804037EACA
:1002030024FFFDE434FFFC7F107E001202CBAC160A
:10021300AD17CFCDCFCECCCE12013EEF540FFEC3E0
:10022300940A74809480EE5004243080022437FFB3
:060233001203971A80BFC0
:0102390022A2
:040284008A1B8B1C2A
:100288001203A1AA1DEAFF7E00D394007480948013
:100298004026EF24FFFDEE34FFFC7F021202CBACB8
:1002A8001BAD1CCFCDCFCECCCE12013EEF540124D6
:0802B80030FF1203971A80CDFC
:0102C000221B
:10000300E4FB75A0FFC2A320A70E7F0FFE1203C35C
:1000130030A7FD1203BF7B0120A60B1203BF30A63E
:10002300FD1203BF7B0520A50B1203BF30A5FD12F4
:1000330003BF7B0920A40B1203BF30A4FD1203BF2F
:100043007B0D75A0FFC2A220A70B1203BF30A7FD33
:100053001203BF7B0220A60B1203BF30A6FD1203BF
:10006300BF7B0620A50B1203BF30A5FD1203BF7B88
:100073000A20A40B1203BF30A4FD1203BF7B0E752D
:10008300A0FFC2A120A70B1203BF30A7FD1203BF1D
:100093007B0320A60B1203BF30A6FD1203BF7B0711
:1000A30020A50B1203BF30A5FD1203BF7B0B20A4B9
:1000B3000B1203BF30A4FD1203BF7B0F75A0FFC259
:1000C300A020A70B1203BF30A7FD1203BF7B0420A0
:1000D300A60B1203BF30A6FD1203BF7B0820A50B9E
:1000E3001203BF30A5FD1203BF7B0C20A40B120328
:0B00F300BF30A4FD1203BF7B10AF0361
:0100FE0022DF
:10019300E4FB20A3127F14FE1203C330A3FD7F14DC
:1001A3007E001203C37B0120A2137F147E0012037F
:1001B300C330A2FD7F147E001203C37B0220A11370
:1001C3007F147E001203C330A1FD7F147E0012034F
:1001D300C37B0320A0137F147E001203C330A0FD52
:0B01E3007F147E001203C37B04AF03F7
:0101EE0022EE
:1003D8005389F0438901758A18758CFCC28DD28CBB
:0703E800D2A9D2AFC2B92275
:03000000020423D4
:0C042300787FE4F6D8FD7581250202F216
:1000FF00BB010CE58229F582E5833AF583E02250B6
:10010F0006E92582F8E622BBFE06E92582F8E222FF
:0D011F00E58229F582E5833AF583E4932219
:10012C00EF8DF0A4A8F0CF8CF0A428CE8DF0A42EE7
:02013C00FE22A1
:10013E00BC000BBE0029EF8DF084FFADF022E4CCA5
:10014E00F875F008EF2FFFEE33FEEC33FCEE9DEC6E
:10015E00984005FCEE9DFE0FD5F0E9E4CEFD22EDB4
:10016E00F8F5F0EE8420D21CFEADF075F008EF2FFE
:10017E00FFED33FD4007985006D5F0F222C398FDEF
:05018E000FD5F0EA228C
:00000001FF
