:03000300012000D9
:1004AA007580FE1204C112028A8F21EF640170F670
:0704BA00052053200180EF33
:03000B0002022AC4
:0F022A00C0E0C0D075D000C000C004C005C00740
:10023900758A18758CFC051FE51F7002051EC3948D
:10024900F4E51E9401402D751E00751F00E520FD83
:100259007C00700DAF807801EF08800123D8FDF58F
:1002690080ED64014C700DAF807801EF08800103C7
:04027900D8FDF58037
:0D027D00D007D005D004D000D0D0D0E032A2
:1004EC003F065B4F666D7D077F6F777C395E797158
:0104FC0000FF
:040491007F0F7E005B
:10049500EF1FAC0670011E4C600A7D027CEFDCFE8E
:0404A500DDFC80EC0E
:0104A9002230
:1003E900C374089FFFF87401088002C333D8FCF472
:1003F900F590ED9004EC93F4F5807F017E001204F2
:05040900957580FF2243
:0604FD00C2918F80D29233
:080503007F027EEFDEFEDFFC4B
:01050B0022CD
:0A050C00C2901204FDC29202050322
:10045500CFCDCFCECCCE1201497C007D0A12014909
:04046500ED2430FF53
:0A046900D2901204FDC292020503B6
:10047300AE07EEFB7A0064017004ED148009EB64AF
:0E048300024A7009ED243F4480FF12050C224E
:1004D8007F3812050C7F0C12050C7F0612050C7F65
:0404E8000102050CFC
:0A051600AC03120473AF0402046981
:060432008B268A278928B1
:10043800120473E4FDAB26AA27A9288D82758300D0
:0C04480012010AFF60061204690D80E931
:010454002285
:0A03B800EF24FFFDEE34FFFC7F0A86
:0803C2008E228F238C248D256F
:1003CA007F017E00E4FBEBC39525E5246480F87485
:0E03DA008098500AAC22AD231201370B80E848
:0103E80022F2
:04040E008A118B12B2
:10041200120473AA13EAFF7E00D3940074809480BE
:0F042200400D1203B8AC11AD121204551A80E64A
:0104310022A8
:040331008B828A83AE
:10033500120473C3E58364809480400D7F2B1204FF
:100345006985830D85820E80107F2D120469C3E4B3
:100355009582F50EE49583F50DAA0CEAFF7E00D390
:10036500940074809480400D1203B8AC0DAD0E124C
:0503750004551A80E6AA
:01037A002260
:0402E6008A168B17D2
:1002EA00120473AA18EAD39400748094804037EAFF
:1002FA0024FFFDE434FFFC7F107E001203C2AC161B
:10030A00AD17CFCDCFCECCCE120149EF540FFEC3DD
:10031A00940A74809480EE5004243080022437FFBB
:06032A001204691A80BFF5
:0103300022AA
:04037B008A1B8B1C32
:10037F00120473AA1DEAFF7E00D394007480948048
:10038F004026EF24FFFDEE34FFFC7F021203C2ACC8
:10039F001BAD1CCFCDCFCECCCE120149EF540124D3
:0803AF0030FF1204691A80CD31
:0103B7002223
:10000E00E4FB75A0FFC2A320A70E7F0FFE1204957E
:10001E0030A7FD1204917B0120A60B12049130A68D
:10002E00FD1204917B0520A50B12049130A5FD1243
:10003E0004917B0920A40B12049130A4FD120491AB
:10004E007B0D75A0FFC2A220A70B12049130A7FD55
:10005E001204917B0220A60B12049130A6FD12040D
:10006E00917B0620A50B12049130A5FD1204917B05
:10007E000A20A40B12049130A4FD1204917B0E757C
:10008E00A0FFC2A120A70B12049130A7FD1204916C
:10009E007B0320A60B12049130A6FD1204917B0760
:1000AE0020A50B12049130A5FD1204917B0B20A408
:1000BE000B12049130A4FD1204917B0F75A0FFC2A8
:1000CE00A020A70B12049130A7FD1204917B0420EF
:1000DE00A60B12049130A6FD1204917B0820A50BED
:1000EE0012049130A5FD1204917B0C20A40B120476
:0B00FE009130A4FD1204917B10AF03B1
:0101090022D3
:10028A00E4FB20A3127F14FE12049530A3FD7F1411
:10029A007E001204957B0120A2137F147E001204B3
:1002AA009530A2FD7F147E001204957B0220A113D3
:1002BA007F147E0012049530A1FD7F147E00120483
:1002CA00957B0320A0137F147E0012049530A0FDB5
:0B02DA007F147E001204957B04AF032C
:0102E50022F6
:1004C1005389F0438901758A18758CFCC28DD28CD1
:0704D100D2A9D2AFC2B9228B
:0300000002019E5C
:0C019E00787FE4F6D8FD7581280201E5A9
:10010A00BB010CE58229F582E5833AF583E02250AA
:10011A0006E92582F8E622BBFE06E92582F8E222F4
:0D012A00E58229F582E5833AF583E493220E
:10013700EF8DF0A4A8F0CF8CF0A428CE8DF0A42EDC
:02014700FE2296
:10014900BC000BBE0029EF8DF084FFADF022E4CC9A
:10015900F875F008EF2FFFEE33FEEC33FCEE9DEC63
:10016900984005FCEE9DFE0FD5F0E9E4CEFD22EDA9
:10017900F8F5F0EE8420D21CFEADF075F008EF2FF3
:10018900FFED33FD4007985006D5F0F222C398FDE4
:050199000FD5F0EA2281
:1001AA000204AAE493A3F8E493A34003F68001F2BD
:1001BA0008DFF48029E493A3F85407240CC8C33356
:1001CA00C4540F4420C8834004F456800146F6DF25
:1001DA00E4800B0102040810204080900003E47EB2
:1001EA00019360BCA3FF543F30E509541FFEE4931A
:1001FA00A360010ECF54C025E060A840B8E493A3E1
:10020A00FAE493A3F8E493A3C8C582C8CAC583CA0B
:10021A00F0A3C8C582C8CAC583CADFE9DEE780BEC3
:0100060000F9
:00000001FF
