:100894001205B18F41E54160F77F647E001208F5CF
:0908A400AD417F0112085E80E7FE
:100932003F065B4F666D7D077F6F777C395E79710D
:03094200007FBF74
:1008C60007141601120F1D0F030C081F1C1F1E33E1
:0708D6001E1F1F1E1F1E1F45
:0408AD007F0F7E003B
:1008B100EF1FAC0670011E4C600A7D027CEFDCFE6E
:0408C100DDFC80ECEE
:0108C5002210
:10085E00C374089FFFF87401088002C333D8FCF4F8
:0B086E00F590ED90093293F4F5802224
:040003008E1B8F1CA5
:10000700ED24B2700302021C24FC700302012524B4
:10001700E6601524FE700302021C24FC7003020133
:1000270025242660030202CCAE1BAF1C7C037DE8AF
:1000370012040874322FF58274093EF583E493F5B0
:100047001DAE1BAF1C7C037DE81204087E007F6495
:10005700CFCDCFCECCCE12040874322FF5827409DF
:100067003EF583E493F51EAE1BAF1C7C037DE812BF
:1000770004087E007F64CFCDCFCECCCE1204087E9D
:10008700007F0ACFCDCFCECCCE12040874322FF525
:100097008274093EF583E493F51FAE1BAF1C7C0306
:1000A7007DE81204087E007F64CFCDCFCECCCE1280
:1000B70004087E007F0ACFCDCFCECCCE12040874C1
:1000C700322DF58274093CF583E493F520E4FAFBBD
:1000D700741D2BF8E6643F7011741D2BF8E4F60BC2
:1000E700BB00010AEB64034A70E67A007B01C37424
:1000F700089BFFF87401088002C333D8FCF4F5901D
:10010700741C2BF8E6F4F5807F017E001208B175A8
:1001170080FF0BBB00010AEB64054A70D122AE1BBE
:10012700AF1C7C037DE812040874322FF582740932
:100137003EF583E493F521AE1BAF1C7C037DE812EB
:1001470004087E007F64CFCDCFCECCCE12040874D6
:10015700322FF58274093EF583E493F522AE1BAF87
:100167001C7C037DE81204087E007F64CFCDCFCED0
:10017700CCCE1204087E007F0ACFCDCFCECCCE12D4
:10018700040874322FF58274093EF583E493F5234E
:10019700AE1BAF1C7C037DE81204087E007F64CF92
:1001A700CDCFCECCCE1204087E007F0ACFCDCFCEE6
:1001B700CCCE12040874322DF58274093CF583E421
:1001C70093F5247A007B04741D2BF8E6643F7011C5
:1001D700741D2BF8E4F60BBB00010AEB64074A70A9
:1001E700E67A007B04C374089BFFF8740108800259
:1001F700C333D8FCF4F590741C2BF8E6F4F5807F34
:10020700017E001208B17580FF0BBB00010AEB6489
:05021700094A70D1222C
:10021C0075250075260A7A007B07AC25AD26AE1B2A
:10022C00AF1C12040874322DF58274093CF583E47A
:10023C0093FF741D2BF8A607AE1BAF1C7C007D0A28
:10024C001204088E1B8F1CEB1B70011ABAFFCBBB60
:10025C00FFC8E4FAFB741D2BF8E6643F7011741DA3
:10026C002BF8E4F60BBB00010AEB64044A70E67A47
:10027C00007B04741D2BF8E6643F7011741D2BF881
:10028C00E4F60BBB00010AEB64074A70E67A007BCC
:10029C0001C374089BFFF87401088002C333D8FCB7
:1002AC00F4F590741C2BF8E6F4F5807F017E0012B7
:1002BC0008B17580FF0BBB00010AEB64094A70D1D1
:0102CC00220F
:06095700C2918F80D292D4
:08095D007F027EEFDEFEDFFCED
:01096500226F
:0A096600C290120957C29202095D07
:10082200CFCDCFCECCCE1204087C007D0A120408B4
:04083200ED2430FF82
:0A083600D290120957C29202095D28
:10084000AE07EEFB7A0064017004ED148009EB64DE
:0E085000024A7009ED243F4480FF120966221F
:10090B007F381209667F0C1209667F061209667F13
:04091B000102096666
:0A097000AC03120840AF0402083681
:0607FF008B448A45894687
:10080500120840E4FDAB44AA45A9468D82758300D4
:0C0815001203C9FF60061208360D80E9CE
:0108210022B4
:0A07AA00EF24FFFDEE34FFFC7F0A90
:0807B4008E3D8F3E8C3F8D400D
:1007BC007F017E00E4FBEBC39540E53F6480F87459
:0E07CC008098500AAC3DAD3E1203F60B80E85B
:0107DA0022FC
:0407DB008A308B31A4
:1007DF00120840AA32EAFF7E00D3940074809480FE
:0F07EF00400D1207AAAC30AD311208221A80E675
:0107FE0022D8
:0406AC008B828A8330
:1006B000120840C3E58364809480400D7F2B1208AC
:1006C0003685832C85822D80107F2D120836C3E459
:1006D0009582F52DE49583F52CAA2BEAFF7E00D3B5
:1006E000940074809480400D1207AAAC2CAD2D129A
:0506F00008221A80E65B
:0106F50022E2
:040661008A358B3615
:10066500120840AA37EAD39400748094804037EA90
:1006750024FFFDE434FFFC7F107E001207B4AC3587
:10068500AD36CFCDCFCECCCE120408EF540FFEC37E
:10069500940A74809480EE5004243080022437FF3D
:0606A5001208361A80BFA6
:0106AB00222C
:040737008A3A8B3B34
:10073B00120840AA3CEAFF7E00D394007480948098
:10074B004026EF24FFFDEE34FFFC7F021207B4AC12
:10075B003AAD3BCFCDCFCECCCE120408EF54012413
:08076B0030FF1208361A80CDA0
:010773002263
:1002CD00E4FB75A0FFC2A320A70E7F0FFE1208B19D
:1002DD0030A7FD1208AD7B0120A60B1208AD30A68C
:1002ED00FD1208AD7B0520A50B1208AD30A5FD1242
:1002FD0008AD7B0920A40B1208AD30A4FD1208AD8A
:10030D007B0D75A0FFC2A220A70B1208AD30A7FD73
:10031D001208AD7B0220A60B1208AD30A6FD120807
:10032D00AD7B0620A50B1208AD30A5FD1208AD7BE7
:10033D000A20A40B1208AD30A4FD1208AD7B0E757A
:10034D00A0FFC2A120A70B1208AD30A7FD1208AD6A
:10035D007B0320A60B1208AD30A6FD1208AD7B075E
:10036D0020A50B1208AD30A5FD1208AD7B0B20A406
:10037D000B1208AD30A4FD1208AD7B0F75A0FFC2A6
:10038D00A020A70B1208AD30A7FD1208AD7B0420ED
:10039D00A60B1208AD30A6FD1208AD7B0820A50BEB
:1003AD001208AD30A5FD1208AD7B0C20A40B120870
:0B03BD00AD30A4FD1208AD7B10AF03B3
:0103C8002212
:1005B100E4FB20A3127F14FE1208B130A3FD7F14C7
:1005C1007E001208B17B0120A2137F147E00120865
:1005D100B130A2FD7F147E001208B17B0220A1136D
:1005E1007F147E001208B130A1FD7F147E00120835
:1005F100B17B0320A0137F147E001208B130A0FD4F
:0B0601007F147E001208B17B04AF03E1
:01060C0022CB
:1008DE005389F0438901758A18758CFCC28DD28CB0
:0708EE00D2A9D2AFC2B9226A
:1008790043878075985053890F438920758BF37589
:0B0889008DF3C2ABD28ED2AFD2AC22F6
:08097A008F993099FDC299220A
:05098800C2B6C2B4225A
:10091F00EF75F00A84C454F0FEEF75F00A84EE25EB
:03092F00F0FF22B4
:0309450012055345
:0F094800EFC4540F75F00AA4FEEF540F2EFF22D8
:0704E90012091FAD077F8619
:0204F000A9075A
:1004F200D2B6E4FBEBC394087480948050227E0051
:100502007401A803088005C333CE33CED8F9FFE9BE
:10051200F582EF558224FF92B5D2B4C2B40B80D4D7
:10052200E4FBEBC394087480948050227E00740133
:10053200A803088005C333CE33CED8F9FFEDF58288
:10054200EF558224FF92B5D2B4C2B40B80D4C2B6A6
:010552002286
:02055300AD07F2
:10055500E4F9430501D2B6FBEBC39408748094809B
:1005650050227E007401A803088005C333CE33CE24
:10057500D8F9FFEDF582EF558224FF92B5C2B4D2CA
:10058500B40B80D4E4FBEBC39408748094805017BB
:10059500D2B4C2B430B50DA8037401088002C333C8
:0B05A500D8FC42010B80DFC2B6AF01A2
:0105B0002228
:10060D00E4FD7F8E1204F0AF1412091FAD077F8C2D
:10061D001204F0AF1512091FAD077F881204F0AF59
:10062D00161204E9AF1712091FAD077F841204F0EB
:10063D00AF1812091FAD077F821204F0AF1912090E
:10064D001FAD077F801204F0AF1A1204E97D807F81
:04065D008E0204F015
:1006F6007F8C1209458F147F881209458F157F86D6
:100706001205531209488F167F84120553120948A1
:100716008F177F821205531209488F187F801205A2
:10072600531209488F197F8A1205531209488F1AE6
:0107360022A0
:02077400AB05D3
:10077600EF24D0FF54037009EF75F06484E5F07040
:100786000D7E007C017D90120408ED4C700FEB6429
:100796000270037F1D2274072BF8E6FF2274072BD5
:0307A600F8E6FF73
:0107A900222D
:05098200007FF7DFFE1D
:01098700224D
:0408F500AD07AC0699
:1008F900E4FEEEC39DE49C5008B2B71209820E8053
:01090900F1FC
:01090A0022CA
:0300000002045D9A
:0C045D00787FE4F6D8FD7581460204A407
:1003C900BB010CE58229F582E5833AF583E02250E9
:1003D90006E92582F8E622BBFE06E92582F8E22233
:0D03E900E58229F582E5833AF583E493224D
:1003F600EF8DF0A4A8F0CF8CF0A428CE8DF0A42E1B
:02040600FE22D4
:10040800BC000BBE0029EF8DF084FFADF022E4CCD8
:10041800F875F008EF2FFFEE33FEEC33FCEE9DECA1
:10042800984005FCEE9DFE0FD5F0E9E4CEFD22EDE7
:10043800F8F5F0EE8420D21CFEADF075F008EF2F31
:10044800FFED33FD4007985006D5F0F222C398FD22
:050458000FD5F0EA22BF
:10046900020894E493A3F8E493A34003F68001F20D
:1004790008DFF48029E493A3F85407240CC8C33394
:10048900C4540F4420C8834004F456800146F6DF63
:10049900E4800B01020408102040809008C6E47E25
:1004A900019360BCA3FF543F30E509541FFEE49358
:1004B900A360010ECF54C025E060A840B8E493A31F
:1004C900FAE493A3F8E493A3C8C582C8CAC583CA4A
:1004D900F0A3C8C582C8CAC583CADFE9DEE780BE02
:0108DD00001A
:00000001FF
