:10014D000A040D040F0211020F0411020F020D0219
:10015D000C0205020C020C040A040D040F0211021C
:0D016D000F0411020F020C0408040A08FF21
:10009A00204A0A0000F88CF8F3F95BF9B8FA15FA65
:1000AA0067FAB9FB04FB4BFB90FBCFFC10FC44FC4A
:1000BA0079FCACFCDCFD09FD34FD5CFD82FDA6FD8E
:1000CA00C8FDE8FE06FE22FE3DFE56FE6EFE85FED9
:0D00DA009AFEAEFEC1FED3FEE4FEF4FF036D
:10011C0012017AE50990014D93FFF460208F0805D8
:10012C0009E5099375F07DA4FFAEF0120191050964
:10013C00C28C7F057E00120191D28C80D6C28C803D
:01014C00FEB4
:03000B000200E808
:1000E800C0E0C0D075D000C000C006E50825E024F7
:1000F8000AF8E6FE08E64E6012E50825E0240AF84C
:10010800E6FE08E6F58AEEF58CB2B7D006D000D048
:04011800D0D0E03231
:10017A005389F0438901758A18758CFCC28DD28C1B
:07018A00D2A9D2AFC2B922D5
:10019100EF1FAC0670011E4C600A7D027CEFDCFE95
:0401A100DDFC80EC15
:0101A5002237
:0300000002000EED
:0C000E00787FE4F6D8FD758153020055A0
:10001A0002011CE493A3F8E493A34003F68001F2DF
:10002A0008DFF48029E493A3F85407240CC8C333E7
:10003A00C4540F4420C8834004F456800146F6DFB6
:10004A00E4800B010204081020408090009AE47EAC
:10005A00019360BCA3FF543F30E509541FFEE493AB
:10006A00A360010ECF54C025E060A840B8E493A372
:10007A00FAE493A3F8E493A3C8C582C8CAC583CA9D
:10008A00F0A3C8C582C8CAC583CADFE9DEE780BE55
:0100E7000018
:00000001FF
