:0C04C80041444420434F4D204E554D0050
:03051300012900BB
:1002740012047A7BFF7A0479C87D017F0112040697
:1002840012050D1204AEEF70061204BBEF601D12CE
:10029400051A8F2B1205178F2A7E00EF6415700440
:1002A40015298008EF64094E70020529E52BFB7AB5
:1002B400007518027D017F021202DFE52AFB7A0035
:1002C4007518027D057F021202DFE529FB7A0075AD
:0B02D40018037D097F021203E280A8DE
:10046500EF1FAC0670011E4C600A7D027CEFDCFEBE
:04047500DDFC80EC3E
:010479002260
:06049F00C2A58F80D2A768
:0804A5007F027EEFDEFEDFFCAA
:0104AD00222C
:0A04EA00C2A612049FC2A70204A5D7
:10042900CFCDCFCECCCE1201937C007D0A120193A1
:04043900ED2430FF7F
:0A043D00D2A612049FC2A70204A574
:10044700AE07EEFB7A0064017004ED148009EB64DB
:0E045700024A7009ED243F4480FF1204EA229D
:10047A007F381204EA7F0C1204EA7F061204EA7F2C
:04048A00010204EA7D
:0A04F400AC03120447AF0402043DFC
:060406008B148A15891613
:10040C00120447E4FDAB14AA15A9168D827583005E
:0C041C00120154FF600612043D0D80E93F
:0104280022B1
:0A03B100EF24FFFDEE34FFFC7F0A8D
:0803BB008E198F1A8C1B8D1C9A
:1003C3007F017E00E4FBEBC3951CE51B6480F8749E
:0E03D3008098500AAC19AD1A1201810B80E817
:0103E10022F9
:0403E2008A168B17D5
:1003E600120447AA18EAFF7E00D394007480948012
:0F03F600400D1203B1AC16AD171204291A80E6A0
:0104050022D4
:04032A008B828A83B5
:10032E00120447C3E58364809480400D7F2B120432
:10033E003D85832285822380107F2D12043DC3E4E8
:10034E009582F523E49583F522AA21EAFF7E00D358
:10035E00940074809480400D1203B1AC22AD231230
:05036E0004291A80E6DD
:010373002267
:0402DF008A168B17D9
:1002E300120447AA18EAD39400748094804037EA32
:1002F30024FFFDE434FFFC7F107E001203BBAC1629
:10030300AD17CFCDCFCECCCE120193EF540FFEC39A
:10031300940A74809480EE5004243080022437FFC2
:0603230012043D1A80BF28
:0103290022B1
:040374008A268B2723
:10037800120447AA28EAFF7E00D394007480948070
:100388004026EF24FFFDEE34FFFC7F021203BBACD6
:1003980026AD27CFCDCFCECCCE120193EF5401247A
:0803A80030FF12043D1A80CD64
:0103B000222A
:0B04D400D288C289D2A8D2AFD2B822D1
:10048E005389F0438901758A18758CFCC28DC28C14
:01049E00223B
:0B04DF00AD07AC068C8CAF058F8A22A5
:0904FE00AF8CEFFEAD8AEDFF2288
:06050700EF24FF928C229C
:06050D0012048E0204D46A
:0D04AE00E50F6006E4F50F7F01227F0022BC
:0D04BB00E50D6006E4F50D7F01227F0022B3
:03051700AF0B2205
:03051A00AF0C2201
:03000300020006F2
:10000600C0E0C0F0C083C082C0D075D000C000C0C0
:1000160001C002C003C004C005C006C007E50870E1
:100026000CFFFE1204DF7F011205078049E5086414
:100036000170491204FE8E098F0AE4FFFE1204DFE6
:10004600D3E50A94A6E509942E4010E50A948EE5B8
:100056000994325006750802020139D3E50A948CD8
:10006600E50994264010E50A9474E509942A500699
:10007600750D01020131750801020139E5086402B6
:1000860060030201391204FE8E098F0AE4FFFE1294
:1000960004DFD3E50A9414E5099402402BE50A949B
:1000A600FCE50994055021E50E131313541F241083
:1000B600F8C000E6FFE50E5407FEF874010880025A
:1000C600C333D8FCF45F8033D3E50A9426E509945C
:1000D60006402FE50A940EE509940A5025E50E130D
:1000E6001313541F2410F8C000E6FFE50E5407FE54
:1000F600F87401088002C333D8FC4FD000F6050E11
:100106008006750E00750801C3E50E942074809470
:10011600804020750E00E511F4B5100FE513F4B517
:10012600120985100C85120B750F01E4FF120507E5
:10013600750800D007D006D005D004D003D002D071
:0E01460001D000D0D0D082D083D0F0D0E032F3
:030000000201E812
:0C01E800787FE4F6D8FD75812B02022F11
:10015400BB010CE58229F582E5833AF583E0225060
:1001640006E92582F8E622BBFE06E92582F8E222AA
:0D017400E58229F582E5833AF583E49322C4
:10018100EF8DF0A4A8F0CF8CF0A428CE8DF0A42E92
:02019100FE224C
:10019300BC000BBE0029EF8DF084FFADF022E4CC50
:1001A300F875F008EF2FFFEE33FEEC33FCEE9DEC19
:1001B300984005FCEE9DFE0FD5F0E9E4CEFD22ED5F
:1001C300F8F5F0EE8420D21CFEADF075F008EF2FA9
:1001D300FFED33FD4007985006D5F0F222C398FD9A
:0501E3000FD5F0EA2237
:1001F400020274E493A3F8E493A34003F68001F2AB
:1002040008DFF48029E493A3F85407240CC8C3330B
:10021400C4540F4420C8834004F456800146F6DFDA
:10022400E4800B0102040810204080900513E47E52
:10023400019360BCA3FF543F30E509541FFEE493CF
:10024400A360010ECF54C025E060A840B8E493A396
:10025400FAE493A3F8E493A3C8C582C8CAC583CAC1
:10026400F0A3C8C582C8CAC583CADFE9DEE780BE79
:0105160000E4
:00000001FF
